:10000000020003758128120142E582600302006F3D
:10001000780079007A007B007C007D00EC4D601C4C
:1000200088828983E493A3A882A9838A828B83F040
:10003000A3AA82AB831CBCFFE31D80E07582007520
:1000400083007C007D00EC4D600AE4F0A31CBCFF43
:10005000F51D80F27582007583007C007D00EC4DFB
:10006000600AE4F0A31CBCFFF51D80F212014112EE
:10007000020280FE1B5B324A0045464D3820467224
:10008000657175656E6379206D6561737572656DF7
:10009000656E74207573696E672054696D65722F83
:1000A000436F756E74657220302E0A46696C653A2E
:1000B0002025730A436F6D70696C65643A2025735F
:1000C0002C2025730A0A00433A5C55736572735CF1
:1000D000636172736F5C446F63756D656E74735C9E
:1000E000312E205363686F6F6C5C302E205370721A
:1000F000696E6720323031385C456C656320323977
:10010000325C6C6162345C6672657175656E6379D0
:100110002E6300466562203238203230313800319B
:10012000323A32383A3233000D663D256C75487AE2
:10013000001B5B304B003C4E4F20464C4F41543E21
:10014000002275A7007597DE7597AD43FF8075EFA8
:100150000275A71075C12075A70075A90075A900C3
:10016000E5A930E7FB75A90375A903E5A930E7FB0D
:1001700043A41075E10175E21075E3407598108590
:100180008E8E758DE6858D8B53890F438920D28E97
:10019000D29975820022AA82438E407592B87593D7
:1001A000FF8592948593957591047B00C3EB9A50DB
:1001B00012E59130E7FB53917F108D028002050913
:1001C0000B80E975910022AA82AB83BA0004BB00C0
:1001D00001227582F9C002C0031201967582F912DC
:1001E00001967582F91201967582FA120196D00372
:1001F000D0021ABAFF011B80D25389F0438905C28D
:100200008C221201F99001F41201C77474C0E074D9
:1002100000C0E07480C0E01202F3158115811581E1
:10022000741FC0E07401C0E07480C0E07413C0E0CB
:100230007401C0E07480C0E074C7C0E07400C0E026
:100240007480C0E07479C0E07400C0E07480C0E0E5
:100250001202F3E58124F4F581758A00758C00752E
:100260000900C28DD28C9003E81201C7C28CAA0982
:100270007B008B058A047B007A00AE8C7F007800BF
:1002800088018F008E077E00EE2AFAEF3BFBE83CE8
:10029000FCE93DFDAE8AE4FF3395E0F8F9EE2AFA79
:1002A000EF3BFBE83CFCE93DFDC002C003C004C0DD
:1002B000057428C0E07401C0E07480C0E01202F34D
:1002C000E58124F9F5817431C0E07401C0E07480E7
:1002D000C0E01202F315811581158102025902094D
:1002E0003485821985831A85F01B850A1C9002DEED
:1002F00002039DC008858108E50824FBF51CE5087C
:1003000024FBF8861908861A08861B9002DE120361
:100310009DD00822AA827425C0E07403C0E0C00BFF
:10032000C00C8A82220512E4B51202051322AA82A9
:1003300074302AFA24C6500A74072AFA300003439C
:1003400002208A82020314E582FAC4540FF582C0A7
:100350000212032ED002740F5AF58202032EAA0D48
:10036000AB0EAC0FAD10AE11751820EE2EFEED23C6
:100370005401FF4206EA2AFAEB33FBEC33FCED337F
:10038000FDC3EE95144008EEC39514FE430201D55B
:1003900018D98A0D8B0E8C0F8D108E112285820B31
:1003A00085830CE4F512F513AA19AB1AAC1B8A82EB
:1003B0008B838CF0120949FD74012AF519E43BF591
:1003C0001A8C1BEDFA700302092DBA250280030274
:1003D0000925C204C205C206C207C208C209C20A70
:1003E000C20BC201C202C203751400751500751656
:1003F000FFAB19AC1AAD1B8B828C838DF0120949AF
:10040000FAA3AB82AC838B198C1A8D1BBA25078A91
:100410008212031480928A06BE3000402E8A06EEB5
:1004200024C6402774FFB51613E51575F00AA4FE1F
:10043000EA24D02EF51570BFD20580BBE51675F005
:100440000AA4FEEA24D02EF51680ACBA2E0A74FF58
:10045000B516A4751600809F8A06BE6100400E8AFC
:1004600006EE248540075302DFD2008002C200BAA4
:1004700020028075BA23030204F8BA2A030204FD9D
:10048000BA2B02805FBA2D028055BA4202805FBA51
:100490004303020542BA440302067DBA450302063D
:1004A00097BA4603020693BA470302069BBA49036A
:1004B00002067DBA4C02803BBA4E0302069FBA4F39
:1004C00003020684BA5003020616BA5303020566F5
:1004D000BA5503020689BA580302068E0206C9D22B
:1004E000040203F7D2060203F7D2070203F7D20988
:1004F0000203F7D20A0203F7D20B0203F774FFB527
:10050000162030090BE51C14F8881C86150203F729
:10051000E51C24FEF8881C8606088607188E15023E
:1005200003F730090BE51C14F8881C86160203F744
:10053000E51C24FEF8881C8606088607188E16021D
:1005400003F730090AE51C14F8881C8602800FE5C1
:100550001C24FEF8881C8603088604188B028A82F5
:100560001203140206CEE51C24FDF8881C8603083D
:10057000860408860518188B0D8C0E8D0F8B828CC7
:10058000838DF012097EAB82AC838B1774FFB51696
:100590000385171620041DC3E51795155016E5159C
:1005A000C39517F515AB151515EB6008758220126C
:1005B000031480F1850D82850E83850FF0120949A1
:1005C000FBFA6029AB161516C3E464808BF063F068
:1005D0008095F050188A82120314AB0DAC0EAD0F4B
:1005E0000BBB00010C8B0D8C0E8D0F80C7200403FC
:1005F0000206CEC3E517951540030206CEE515C3E6
:100600009517F515AB151515EB70030206CE75821F
:100610002012031480EEE51C24FDF8881C860308D4
:10062000860408860518188B0D8C0E8D0FE50FFBC0
:1006300030E7047A438013EB546060047A50800AF8
:10064000EB30E6047A4980027A588A82C0021203AB
:100650001475823A1203147582301203147582786D
:10066000120314D002BA4902800BBA5002800685E8
:100670000E82120347850D821203478051D20875FE
:10068000140A804A751408804575140A8040751450
:1006900010803BD2018037D2028033D203802FE515
:1006A0001C24FDF8881C8603088604088605181893
:1006B0008B0D8C0E8D0F8B828C838DF0E5121209C1
:1006C00065A3E51312096580058A821203142001CF
:1006D0000620020330035AE51C24FCF8881C86031C
:1006E0000886040886050886061818188B0D8C0ED7
:1006F0008D0F8E10750D36750E01750F80850D1DD1
:10070000850E1E850F1F7401251DFEE4351EFFABEF
:100710001F8E0D8F0E8B0F851D82851E83851FF00A
:10072000120949FBFA70030203A88A82120314809B
:10073000CCE51470030203A87B2830092BE51C14B8
:10074000F8881CE6FC3395E0FDFEFF8C0D8D0E8EC7
:100750000F8F1020085EAC0D7D007E007F008C0D99
:100760008D0E8E0F8F10804C300A1FE51C24FCF874
:10077000881C860408860508860608860718181847
:100780008C0D8D0E8E0F8F10802AE51C24FEF888AC
:100790001C860408860518ED3395E0FEFF8C0D8D50
:1007A0000E8E0F8F1020080CAC0DAD0E7E007F005A
:1007B0008E0F8F10300B43E50D450E450F45106031
:1007C000397408B5140C758230C003120314D003B9
:1007D00080287410B51423758230C003120314D01E
:1007E0000330000C758278C003120314D003800A12
:1007F000758258C003120314D003300825AC0DAD28
:100800000EAE0FE510FF30E717C3E49CFCE49DFD3E
:10081000E49EFEE49FFF8C0D8D0E8E0F8F108002E4
:10082000C208751700D20C8B00751100C0001203AE
:100830005ED000200C0DE511C4FCE6FD4CF61888D6
:10084000038002A6110517B20CE50D450E450F45B4
:100850001070D68803E515700375150120051A2060
:100860000417E51704FCC39515500E758220C003CC
:10087000120314D003151580E930080E75822DC0BF
:1008800003120314D00315158024E51760203006E9
:100890000E75822BC003120314D0031515800F3080
:1008A000070C758220C003120314D0031515200411
:1008B0001EAC151515C3E5179C50273005047C3078
:1008C00080027C208C82C003120314D00380E2C318
:1008D000E51795155009E515C39517F515800375AE
:1008E00015008B00AB171517EB6022B20C200C0A19
:1008F00008E6C4540FFB8B1180078603740F5BF569
:1009000011851182C00012032ED00080D72004036D
:100910000203A8AB151515EB70030203A87582201E
:1009200012031480EE8A821203140203A885128235
:1009300085138322AA82BA0A0810990280FB75994E
:100940000D10990280FB8A992220F71430F6148842
:1009500083A88220F507E6A88375830022E280F74A
:10096000E49322E02220F71030F6118883A8822039
:10097000F507F6A88375830022F280F7F022AA8299
:10098000AB83ACF07D007E008A828B838CF01209F1
:1009900049FFA3AA82AB83EF60070DBD00EA0E807A
:1009A000E78D828E8322000000000000000000001E
:00000001FF
