:100000000200037581411200CEE582600302006F99
:10001000780079007A007B007C007D00EC4D601C4C
:1000200088828983E493A3A882A9838A828B83F040
:10003000A3AA82AB831CBCFFE31D80E07582007520
:1000400083007C007D00EC4D600AE4F0A31CBCFF43
:10005000F51D80F27582007583007C007D00EC4DFB
:10006000600AE4F0A31CBCFFF51D80F21200CD1263
:10007000040380FE506C61636520636C6970206FBF
:100080006E2020200052696E672066696E67657277
:100090006E61696C001B5B324A000D4E6F742073F9
:1000A0007461626C6520796574004852204E6F74EB
:1000B00020537461626C650025640D0A0042504D46
:1000C0003A003C4E4F20464C4F41543E002275A70B
:1000D000007597DE7597AD43FF8075EF0275A71029
:1000E00075C12075A70075A90075A900E5A930E7BD
:1000F000FB75A90375A903E5A930E7FB43A41075B7
:10010000E10175E20075E340759810858E8E758D5E
:10011000E6858D8B53890F438920D28ED2997582C3
:100120000022AA82438E407592B87593FF859294FF
:100130008593957591047B00C3EB9A500BE5913044
:10014000E7FB53917F0B80F075910022AA82AB836D
:100150007C007D00C3EC9AED9B502B7E00BE04001A
:10016000501D7582FAC002C003C004C005C006124B
:100170000122D006D005D004D003D0020E80DE0CC0
:10018000BC00D10D80CE22D2A5758228120122C2D8
:10019000A522AA828AE0A2E792A1A2E692A2A2E503
:1001A00092A3A2E492A4C0021201877582281201D0
:1001B00022D0028AE0A2E392A1A2E292A2A2E1925C
:1001C000A3A2E092A4020187AA82D2A68A82120187
:1001D0009290000202014CAA82C2A68A8212019267
:1001E00090000502014CC2A590001412014C7582CA
:1001F000331201D77582331201D77582321201D7BB
:100200007582281201D775820C1201D775820112EE
:1002100001D790001402014CAA82AB83ACF07402A7
:10022000B50A047DC080027D808D82C002C003C0FB
:10023000041201D790000512014CD004D003D00263
:100240007D007E00ED2AFFEE3BF88C018F828883D3
:1002500089F0120856FF60208F82C002C003C004DC
:10026000C005C0061201C8D006D005D004D003D006
:10027000020DBD00CF0E80CC3000248D028E03C352
:10028000EA9410EB648094805015758220C002C0FF
:10029000031201C8D003D0020ABA00E30B80E022A7
:1002A000AA82AB83ACF07402B50B047DC080027DE2
:1002B000808D82C002C003C0041201D790000512D5
:1002C000014CD004D003D002E4F50CF50DFFF8EF9B
:1002D0002AF9E83BFD8C0689828D838EF012085640
:1002E000F9600F050CE4B50C02050D0FBF00E00826
:1002F00080DDE50C24FFFDE50D34FFFEEE20E73147
:10030000ED2AFFEE3BF88C018F82888389F012087A
:1003100056F582C002C003C004C005C0061201C861
:10032000D006D005D004D003D0021DBDFF011E8031
:10033000CB3001248D028E03C3EA9410EB648094C9
:10034000805015758220C002C0031201C8D003D0AE
:10035000020ABA00E30B80E02285821085831185B2
:10036000F012E4F513F514E50E24FFFFE50F34FF5A
:10037000F879007A00C3E99FEA648088F063F0802E
:1003800095F05059C002C007C000C001120AC6ABA8
:1003900082D001D000D007D002BB0A028003BB0D7F
:1003A0001DE5132510FCE5143511FDAE128C828D70
:1003B000838EF0E4120AD985138285148322E925FD
:1003C00010FCEA3511FDAE128C828D838EF0EB129B
:1003D0000AD909B900010A89138A148098E51325FE
:1003E00010FAE5143511FBAC128A828B838CF0E491
:1003F000120AD9850E82850F83225389F043890121
:10040000C28C22E4F515F516F517F518F519F51A4D
:10041000F51DF51EF51F1203FA1201E6750A01D249
:100420000090007475F080120218750A02D20090D4
:10043000008575F0801202189003E812014C749543
:10044000C0E07400C0E07480C0E0120A6F1581152E
:10045000811581758A00758C00C28D75090020A0F8
:10046000FD30A0FDD28C30A009108D0280F8050966
:1004700080F420A009108D0280F8050980F4C28C58
:100480008509821209F6AF82AA83ABF0FCC007C0CF
:1004900002C003C00490000075F080744712095335
:1004A000AA82AB83ACF0FDE58124FCF581858C82CA
:1004B000C002C003C004C0051209F6AF82AE83A813
:1004C000F0F9C007C006C000C00190000075F080C0
:1004D0007443120953AE82AF83A8F0F9E58124FC7E
:1004E000F581D005D004D003D002C006C007C000FB
:1004F000C0018A828B838CF0ED120A01AA82AB8341
:10050000ACF0FDE58124FCF581AE8A7F008E828F00
:1005100083C002C003C004C005120B35AE82AF8396
:10052000A8F0F9D005D004D003D002C006C007C09F
:1005300000C0018A828B838CF0ED120A01AA82AB83
:1005400083ACF0FDE58124FCF581C002C003C0044A
:10055000C00590F4FC75F0327434120953AA82ABD2
:1005600083ACF0FDE58124FCF581C002C003C0042A
:10057000C00590000075F0707442120B42AA82AB65
:1005800083ACF0FDE58124FCF581E519451A600393
:1005900002062DC002C003C004C005E4C0E0C0E0F4
:1005A0007420C0E07442C0E08A828B838CF0ED122C
:1005B0000923AE82E58124FCF581D005D004D00367
:1005C000D002EE7042C002C003C004C005E4C0E027
:1005D000C0E07434C0E07443C0E08A828B838CF046
:1005E000ED120872AE82E58124FCF581D005D004BD
:1005F000D003D002EE70108A158B168C178D1875EB
:100600001901E4F51A8026749AC0E07400C0E07401
:1006100080C0E0120A6F158115811581750A02D21A
:10062000009000AA75F080120218020453C002C0A4
:1006300003C004C005E4C0E0C0E07448C0E07442F8
:10064000C0E08A828B838CF0ED120923AE82E581B3
:1006500024FCF581D005D004D003D002EE60030263
:100660000747C002C003C004C005E4C0E0C0E07496
:1006700034C0E07443C0E08A828B838CF0ED1208B2
:1006800072AE82E58124FCF581D005D004D003D080
:1006900002EE6003020747C002C003C004C005C0E9
:1006A00015C016C017C0188A828B838CF0ED120B10
:1006B0002AAE82AF83A8F0F9E58124FCF581E4C07D
:1006C000E0C0E07420C0E07442C0E08E828F838876
:1006D000F0E9120923AE82E58124FCF581D005D032
:1006E00004D003D002EE7055C002C003C004C005A0
:1006F000C002C003C004C005851582851683851716
:10070000F0E518120B2AAE82AF83A8F0F9E5812438
:10071000FCF581E4C0E0C0E07420C0E07442C0E0B9
:100720008E828F8388F0E9120923AE82E58124FC52
:10073000F581D005D004D003D002EE600A8A158B73
:10074000168C178D188008AA15AB16AC17AD18C0FB
:1007500015C016C017C0188A828B838CF0ED120A60
:1007600001AE82AF83A8F0F9E58124FCF581E4C0F5
:10077000E0C0E0C0E07440C0E08E828F8388F0E982
:10078000120B42AA82AB83ACF0FDE58124FCF5811B
:100790008A828B838CF0ED1208EFAA82AB83C002B1
:1007A000C003C002C00374B8C0E07400C0E074802D
:1007B000C0E0120A6FE58124FBF581D003D002E48A
:1007C000F51BF51CEA4B6056E51B251DFEE51C35A7
:1007D0001EFFA81F75380AE4F5398A828B83C00290
:1007E000C003C006C007C000120A90A982D000D082
:1007F00007D006D003D0027430298E828F8388F010
:10080000120AD975380AE4F5398A828B83120AF202
:10081000AA82AB83051BE4B51BAA051C80A6E51BB9
:10082000251DFAE51C351EFBAC1F8A828B838CF0DC
:10083000E4120AD9750A01D2009000BD75F0801249
:100840000218750B02D201851D82851E83851FF05B
:100850001202A002045320F71430F6148883A882F1
:1008600020F507E6A88375830022E280F7E493224F
:10087000E022FFA8811818120CA8D2D133E6400755
:1008800030E70B7582012220E70675820022C2D173
:10089000120C8AE97003F5822230D101B3E433F5FA
:1008A0008222E538453960467A01E53825E0F53899
:1008B000E539334012F539E5829538E583953940BD
:1008C000030A80E6C3E53913F539E53813F538C373
:1008D000E5829538F5F0E58395394005F58385F097
:1008E00082C3E53913F539E53813F538DAE1221218
:1008F0000CD3700AE582458345F0700122E430D1C3
:1009000012F4700BE5F0F47006E58330E7012290F5
:10091000800022700AE5F07006E58320E70122904E
:100920007FFF22FFA8811818120CA8D2D133E6400D
:100930000730E70B7582002220E70675820122C28C
:10094000D1120C8AE97003F5822220D101B3E4337D
:10095000F58222120DB0BC0003020D4FEF60FA3099
:10096000D502B2D1E583B4FF03020D65E582B4FF81
:1009700003020D65258340072482400B020D4F249E
:1009800083145003020D65F582EA8DF0A4A8F0EA05
:100990008EF0A428F8E435F0F9EB8DF0A428E935C1
:1009A000F0F9E433CA8FF0A429F9EA35F0FAEBF84C
:1009B0008EF0A429F9EA35F0FAE433FBEC8DF0A4CB
:1009C00029F9EA35F0FAE43BFBE88FF0A42AFAEBC8
:1009D00035F0FBE433CCFD8EF0A42AFAEB35F0FBC6
:1009E000E43CFCED8FF0A42BFBEC35F0FC20E7039E
:1009F000120D7D020D2EE4AC82FBFAF97486020D15
:100A0000E7120DB07900E583B58202800D50031224
:100A10000DF1E583C39582120E0BE5D0C465D0209D
:100A2000E117EA2DFAEB3EFBEC3FFC500974011292
:100A30000E0BEC4480FC020D2EC3EA9DFAEB9EFBEC
:100A4000EC9FFC500FC3E499F9E49AFAE49BFBE4B1
:100A50009CFCB2D1120D7D020D2E02146E858231E6
:100A600085833285F033852234900A5A020ED7C02E
:100A700008858108E50824FBF534E50824FBF886A1
:100A800031088632088633900A5A120ED7D00822CF
:100A9000C2D5E58330E70DD2D5E4C39582F582E473
:100AA0009583F583E53930E70BE4C39538F538E4F1
:100AB0009539F5391208A230D50BE4C39582F58239
:100AC000E49583F5832210980280FBAA998A82C05C
:100AD0000212146ED0028A822220F71030F611889A
:100AE00083A88220F507F6A88375830022F280F799
:100AF000F022C2D5E58330E70DD2D5E4C39582F567
:100B000082E49583F583E53930E70DB2D5E4C395EA
:100B100038F538E49539F539120C6130D50BE4C35A
:100B20009582F582E49583F58322A8811818C6B2D0
:100B3000E7C6020A01AC83AB827A007900748E02A8
:100B4000148C120DB030D502B2D1BF0009BC000325
:100B5000020D72020D65BC0003020D4FE583B4FF68
:100B60000BE582B4FF03020D72020D4FE582B4FF64
:100B700003020D65C395835007247F400B020D4F80
:100B80002480145003020D65C0E0E4CCCBCAF98D7B
:100B9000388E398F3AEF54F0C4F53B758306853BA8
:100BA000F0EB84F582E9C4F9EAC4FAEBC4FBEC5437
:100BB0000FC47803D6FC18EBD6FB18EAD6FA858268
:100BC000F0EDA4A8F0FD8582F0EEA428FEE435F057
:100BD000F88582F0EFA428FFE435F0F8E99DF9EA02
:100BE0009EFAEB9FFBEC98FCAD38AE39AF3A30E79C
:100BF000101582E92DF9EA3EFAEB3FFBE43CFC805C
:100C0000EDC082D58398C3E933F9EA33FAEB33FBBD
:100C1000EC33FCC3E99DEA9EEB9FEC9400B3E41334
:100C2000F9D002D0E0C44AFAD003D0E0C44BFBD0E4
:100C300004D0E0F5F0540FC44CFCD082158230F49F
:100C40000FD3EC13FCEB13FBEA13FAE913F905825B
:100C5000E930E70A74012AFAE43BFBE43CFC020DAC
:100C6000467A10E4FBFCE58225E0F582E58333F566
:100C700083EB33FBEC33FCEB9538F5F0EC95394026
:100C800006FCABF0438201DADD227901AA82E68F0D
:100C900082B5821318E6B5F00E18E6B5830918E69A
:100CA0008A82B58202790022B4800FE5F0700AE5ED
:100CB000837006E58270027F00EFB6801518B600DB
:100CC0001018B6000B18B6000608080876002208AF
:100CD0000808221214B0C3749E958240397900121C
:100CE0000E0B30D126E9F42401F582EAF43400F544
:100CF00083EBF43400F5F0ECF43400700AE582453F
:100D00008345F0700122E430E70F22EC20E71489DC
:100D1000828A838BF02230D10AE4F582F583F5F0E4
:100D200074802274FFF582F583F5F0747F22B98018
:100D300003EA13B34010EA2401FAE43BFBE43CFC71
:100D400050047C800582BC000EBB000BBA0008E496
:100D5000F5F0F583F58222A2D1E582138CF092F7AB
:100D60008B838A8222E4F583F58275F080F4A2D128
:100D70001322E4F583F58275F0C0747F227804ECC9
:100D80007011E58224F8500AF582E4C9CACBFCD878
:100D9000EF22EC7820058220E713D5820122C3E9F7
:100DA00033F9EA33FAEB33FBEC33FCD8EA15822251
:100DB000AA82AB83A2F73392D16002D2F7F582AC5C
:100DC000F0E58124F9F8E6FD08E6FE0886F008E67D
:100DD000A2F73392D56002D2F7F583AFF022FCABD5
:100DE000F0AA83A982749EC2D1F582120D7D020DF4
:100DF0002EE582C583F582A2D133A2D592D113927A
:100E0000D5ECCFFCEBCEFBEACDFA226040F8258290
:100E1000500274FFF582E824F8501ECCCBCAF9E4E6
:100E2000CC24F85014CBCAF9E4CB24F8500BCAF9FF
:100E3000E4CA24F8500379002224086010F8C3ECB7
:100E400013FCEB13FBEA13FAE913F9D8F122AA8297
:100E5000745FC0E0740EC0E0C023C0248A82220503
:100E60002AE4B52A02052B22AA8274302AFA24C663
:100E7000500A74072AFA3002034302208A82020EC3
:100E80004EE582FAC4540FF582C002120E68D002F9
:100E9000740F5AF582020E68AA25AB26AC27AD283E
:100EA000AE29753020EE2EFEED235401FF4206EAF6
:100EB0002AFAEB33FBEC33FCED33FDC3EE952C400B
:100EC00008EEC3952CFE430201D530D98A258B2626
:100ED0008C278D288E2922858223858324E4F52A78
:100EE000F52BAA31AB32AC338A828B838CF012089B
:100EF00056FD74012AF531E43BF5328C33EDFA707E
:100F000003021467BA2502800302145FC206C207F7
:100F1000C208C209C20AC20BC20CC20DC203C2047B
:100F2000C205752C00752D00752EFFAB31AC32ADAE
:100F3000338B828C838DF0120856FAA3AB82AC837C
:100F40008B318C328D33BA25078A82120E4E8092F5
:100F50008A06BE3000402E8A06EE24C6402774FF63
:100F6000B52E13E52D75F00AA4FEEA24D02EF52D3A
:100F700070BFD20780BBE52E75F00AA4FEEA24D02C
:100F80002EF52E80ACBA2E0A74FFB52EA4752E0055
:100F9000809F8A06BE6100400E8A06EE24854007C7
:100FA0005302DFD2028002C202BA20028075BA2345
:100FB00003021032BA2A03021037BA2B02805FBA3A
:100FC0002D028055BA4202805FBA430302107CBAF8
:100FD00044030211B7BA45030211D1BA4603021104
:100FE000CDBA47030211D5BA49030211B7BA4C0270
:100FF000803BBA4E030211D9BA4F030211BEBA5058
:1010000003021150BA53030210A0BA55030211C3D0
:10101000BA58030211C8021203D206020F31D208D5
:10102000020F31D209020F31D20B020F31D20C0262
:101030000F31D20D020F3174FFB52E20300B0BE5AE
:101040003414F88834862D020F31E53424FEF888F4
:10105000348606088607188E2D020F31300B0BE5FB
:101060003414F88834862E020F31E53424FEF888D3
:10107000348606088607188E2E020F31300B0AE5DB
:101080003414F888348602800FE53424FEF888345E
:101090008603088604188B028A82120E4E021208FA
:1010A000E53424FDF888348603088604088605188C
:1010B000188B258C268D278B828C838DF01214C281
:1010C000AB82AC838B2F74FFB52E03852F2E2006A9
:1010D0001DC3E52F952D5016E52DC3952FF52DAB8E
:1010E0002D152DEB6008758220120E4E80F185259E
:1010F000828526838527F0120856FBFA6029AB2EDD
:10110000152EC3E464808BF063F08095F050188A4C
:1011100082120E4EAB25AC26AD270BBB00010C8B0B
:10112000258C268D2780C7200603021208C3E52FD1
:10113000952D4003021208E52DC3952FF52DAB2DFB
:10114000152DEB7003021208758220120E4E80EEF0
:10115000E53424FDF88834860308860408860518DB
:10116000188B258C268D27E527FB30E7047A4380F2
:1011700013EB546060047A50800AEB30E6047A493D
:1011800080027A588A82C002120E4E75823A120E7E
:101190004E758230120E4E758278120E4ED002BA03
:1011A0004902800BBA50028006852682120E818584
:1011B0002582120E818051D20A752C0A804A752C24
:1011C000088045752C0A8040752C10803BD2038026
:1011D00037D2048033D205802FE53424FDF88834DB
:1011E000860308860408860518188B258C268D270B
:1011F0008B828C838DF0E52A120AD9A3E52B120A83
:10120000D980058A82120E4E200306200403300581
:101210005AE53424FCF888348603088604088605D9
:101220000886061818188B258C268D278E2875257C
:10123000C275260075278085253585263685273792
:1012400074012535FEE43536FFAB378E258F268BAE
:10125000278535828536838537F0120856FBFA706C
:1012600003020EE28A82120E4E80CCE52C7003023D
:101270000EE27B41300B2BE53414F88834E6FC3366
:1012800095E0FDFEFF8C258D268E278F28200A5E97
:10129000AC257D007E007F008C258D268E278F2833
:1012A000804C300C1FE53424FCF888348604088612
:1012B000050886060886071818188C258D268E279F
:1012C0008F28802AE53424FEF888348604088605B1
:1012D00018ED3395E0FEFF8C258D268E278F282074
:1012E0000A0CAC25AD267E007F008E278F28300D9E
:1012F00043E52545264527452860397408B52C0C5B
:10130000758230C003120E4ED00380287410B52CA5
:1013100023758230C003120E4ED00330020C75824A
:1013200078C003120E4ED003800A758258C0031293
:101330000E4ED003300A25AC25AD26AE27E528FF9A
:1013400030E717C3E49CFCE49DFDE49EFEE49FFFB0
:101350008C258D268E278F288002C20A752F00D2F9
:101360000E8B00752900C000120E98D000200E0DC3
:10137000E529C4FCE6FD4CF61888038002A6290581
:101380002FB20EE52545264527452870D68803E56A
:101390002D7003752D0120071A200617E52F04FC78
:1013A000C3952D500E758220C003120E4ED003152A
:1013B0002D80E9300A0E75822DC003120E4ED00327
:1013C000152D8024E52F602030080E75822BC00378
:1013D000120E4ED003152D800F30090C758220C0DF
:1013E00003120E4ED003152D20061EAC2D152DC355
:1013F000E52F9C50273007047C3080027C208C82B3
:10140000C003120E4ED00380E2C3E52F952D500984
:10141000E52DC3952FF52D8003752D008B00AB2F87
:10142000152FEB6022B20E200E0A08E6C4540FFB03
:101430008B2980078603740F5BF529852982C000FC
:10144000120E68D00080D7200603020EE2AB2D15E5
:101450002DEB7003020EE2758220120E4E80EE8A92
:1014600082120E4E020EE2852A82852B8322AA82E8
:10147000BA0A0810990280FB75990D10990280FB39
:101480008A9922FCABF0AA83A982749EF582C2D10C
:10149000EC30E716D2D1E9F42401F9EAF43400FA89
:1014A000EBF43400FBECF43400FC120D7D020D2E45
:1014B000AA82AB83A2F73392D16002D2F7F582AC55
:1014C000F022AA82AB83ACF07D007E008A828B83FF
:1014D0008CF0120856FFA3AA82AB83EF60070DBD04
:1014E00000EA0E80E78D828E83220000000000005B
:00000001FF
