:10000000020003758143120159E582600302006F0B
:10001000780079007A007B007C007D00EC4D601C4C
:1000200088828983E493A3A882A9838A828B83F040
:10003000A3AA82AB831CBCFFE31D80E07582007520
:1000400083007C007D00EC4D600AE4F0A31CBCFF43
:10005000F51D80F27582007583007C007D00EC4DFB
:10006000600AE4F0A31CBCFFF51D80F212015812D7
:1000700003D580FE506C61636520636C6970206FEE
:100080006E2020200052696E672066696E67657277
:100090006E61696C001B5B324A0045464D3820504A
:1000A0006572696F64206D6561737572656D656EEB
:1000B000742061742070696E2050322E3020757368
:1000C000696E672054696D657220302E0A46696C2E
:1000D000653A2025730A436F6D70696C65643A2038
:1000E00025732C2025730A0A00433A5C5573657208
:1000F000735C636172736F5C446F63756D656E747E
:10010000735C312E205363686F6F6C5C302E20530C
:100110007072696E6720323031385C456C656320DF
:100120003239325C6C6162345C68725F6D6F6E692B
:10013000746F722E6300466562203238203230318F
:10014000380031373A32393A3535000D543D25669D
:10015000206D7320202020002275A7007597DE7582
:1001600097AD43FF8075EF0275A71075C12075A785
:100170000075A90075A900E5A930E7FB75A903750D
:10018000A903E5A930E7FB43A41075E10175E2007E
:1001900075E340759810858E8E758DE6858D8B5331
:1001A000890F438920D28ED29975820022AA824378
:1001B0008E407592B87593FF85929485939575914D
:1001C000047B00C3EB9A500BE59130E7FB53917F22
:1001D0000B80F075910022AA82AB837C007D00C366
:1001E000EC9AED9B502B7E00BE0400501D7582FAE8
:1001F000C002C003C004C005C0061201ADD006D0C5
:1002000005D004D003D0020E80DE0CBC00D10D80DE
:10021000CE22D2A57582281201ADC2A522AA828A59
:10022000E0A2E792A1A2E692A2A2E592A3A2E492A2
:10023000A4C0021202127582281201ADD0028AE017
:10024000A2E392A1A2E292A2A2E192A3A2E092A4CE
:10025000020212AA82D2A68A8212021D9000020213
:1002600001D7AA82C2A68A8212021D90000502014D
:10027000D7C2A59000141201D7758233120262759D
:100280008233120262758232120262758228120271
:100290006275820C12026275820112026290001471
:1002A0000201D7AA82AB83ACF07402B50A047DC008
:1002B00080027D808D82C002C003C0041202629061
:1002C00000051201D7D004D003D0027D007E00EDDE
:1002D0002AFFEE3BF88C018F82888389F01205A2F9
:1002E000FF60208F82C002C003C004C005C0061298
:1002F0000253D006D005D004D003D0020DBD00CFEC
:100300000E80CC3000248D028E03C3EA9410EB647F
:100310008094805015758220C002C003120253D011
:1003200003D0020ABA00E30B80E02285820D8583A8
:100330000E85F00FE4F510F511E50B24FFFFE50C39
:1003400034FFF879007A00C3E99FEA648088F0639B
:10035000F08095F05059C002C007C000C0011206DD
:10036000FBAB82D001D000D007D002BB0A028003D1
:10037000BB0D1DE510250DFCE511350EFDAE0F8CF6
:10038000828D838EF0E412070E8510828511832200
:10039000E9250DFCEA350EFDAE0F8C828D838EF0C3
:1003A000EB12070E09B900010A89108A118098E53D
:1003B00010250DFAE511350EFBAC0F8A828B838C6C
:1003C000F0E412070E850B82850C83225389F043DB
:1003D0008901C28C221203CC120271750A01D2006B
:1003E00090007475F0801202A3750A02D20090008A
:1003F0008575F0801202A39003E81201D77495C0AE
:10040000E07400C0E07480C0E01206DA1581158146
:1004100015817442C0E07401C0E07480C0E074369D
:10042000C0E07401C0E07480C0E074E9C0E0740012
:10043000C0E07480C0E0749AC0E07400C0E07480D2
:10044000C0E01206DAE58124F4F581758A00758C26
:1004500000C28D75090020A0FD30A0FDD28C30A017
:1004600009108D0280F8050980F420A00930A0FA57
:10047000C28D050980F4C28C850982120661AA82A8
:10048000AB83ACF0FDC002C003C004C00590000007
:1004900075F08074471205BEAA82AB83ACF0FDE50F
:1004A0008124FCF581858C82C002C003C004C00594
:1004B000120661AE82AF83A8F0F9C006C007C00083
:1004C000C00190000075F08074431205BEAE82AF8B
:1004D00083A8F0F9E58124FCF581D005D004D00390
:1004E000D002C006C007C000C0018A828B838CF096
:1004F000ED12066CAA82AB83ACF0FDE58124FCF51D
:1005000081AE8A7F008E828F83C002C003C004C088
:1005100005120727AE82AF83A8F0F9D005D004D02A
:1005200003D002C006C007C000C0018A828B838C42
:10053000F0ED12066CAA82AB83ACF0FDE58124FCE1
:10054000F581C002C003C004C00590F4FC75F03210
:1005500074341205BEAA82AB83ACF0FDE58124FCA5
:10056000F581C002C003C004C00590000075F07A98
:1005700074441205BEAA82AB83ACF0FDE58124FC75
:10058000F581C002C003C004C005744BC0E0740113
:10059000C0E07480C0E01206DAE58124F9F581023A
:1005A000044B20F71430F6148883A88220F507E660
:1005B000A88375830022E280F7E49322E0221207E9
:1005C000B6BC0003020755EF60FA30D502B2D1E5A0
:1005D00083B4FF0302076BE582B4FF0302076B25B8
:1005E0008340072482400B020755248314500302E2
:1005F000076BF582EA8DF0A4A8F0EA8EF0A428F843
:10060000E435F0F9EB8DF0A428E935F0F9E433CACC
:100610008FF0A429F9EA35F0FAEBF88EF0A429F965
:10062000EA35F0FAE433FBEC8DF0A429F9EA35F071
:10063000FAE43BFBE88FF0A42AFAEB35F0FBE43355
:10064000CCFD8EF0A42AFAEB35F0FBE43CFCED8FF8
:10065000F0A42BFBEC35F0FC20E703120783020724
:1006600034E4AC82FBFAF974860207ED1207B6791E
:1006700000E583B58202800D50031207F7E583C3BE
:100680009582120811E5D0C465D020E117EA2DFA51
:10069000EB3EFBEC3FFC50097401120811EC448066
:1006A000FC020734C3EA9DFAEB9EFBEC9FFC500F63
:1006B000C3E499F9E49AFAE49BFBE49CFCB2D112FE
:1006C00007830207340211E085823085833185F08B
:1006D000328512339006C5020C33C008858108E5C7
:1006E0000824FBF533E50824FBF88630088631083A
:1006F00086329006C5120C33D0082210980280FB77
:10070000AA998A82C0021211E0D0028A822220F7BE
:100710001030F6118883A88220F507F6A883758328
:100720000022F280F7F022AC83AB827A0079007469
:100730008E0211FEB98003EA13B34010EA2401FAD5
:10074000E43BFBE43CFC50047C800582BC000EBB17
:10075000000BBA0008E4F5F0F583F58222A2D1E59A
:1007600082138CF092F78B838A8222E4F583F582E0
:1007700075F080F4A2D11322E4F583F58275F0C000
:10078000747F227804EC7011E58224F8500AF58217
:10079000E4C9CACBFCD8EF22EC7820058220E7130D
:1007A000D5820122C3E933F9EA33FAEB33FBEC33A8
:1007B000FCD8EA158222AA82AB83A2F73392D160D9
:1007C00002D2F7F582ACF0E58124F9F8E6FD08E6FF
:1007D000FE0886F008E6A2F73392D56002D2F7F55C
:1007E00083AFF022FCABF0AA83A982749EC2D1F53C
:1007F00082120783020734E582C583F582A2D133D2
:10080000A2D592D11392D5ECCFFCEBCEFBEACDFA78
:10081000226040F82582500274FFF582E824F850E7
:100820001ECCCBCAF9E4CC24F85014CBCAF9E4CBE3
:1008300024F8500BCAF9E4CA24F8500379002224A2
:10084000086010F8C3EC13FCEB13FBEA13FAE9138E
:10085000F9D8F122AA827465C0E07408C0E0C02211
:10086000C0238A82220529E4B52902052A22AA8208
:1008700074302AFA24C6500A74072AFA3001034356
:1008800002208A82020854E582FAC4540FF582C01D
:100890000212086ED002740F5AF58202086EAA2462
:1008A000AB25AC26AD27AE28752F20EE2EFEED230E
:1008B0005401FF4206EA2AFAEB33FBEC33FCED333A
:1008C000FDC3EE952B4008EEC3952BFE430201D5E8
:1008D0002FD98A248B258C268D278E28227840E6D6
:1008E00024D075F00AA4FA7841E624D02AFA783F99
:1008F0008603BB2D04C3E49AFA752B01C3E464801C
:100900008AF063F08095F05029752F038A0374F6FE
:10091000252F401C052BE52F142434F8E52F243413
:10092000F98704A604772E1BEBFA6004052F80DEFE
:100930008B02EA30E70D783586037836A6037835E2
:10094000762E0AE52D600AE52D04FB252BF52B807C
:1009500005300C02052B78348603E4BB2D0104FB23
:100960007006200703300802052B300503020A2415
:10097000300657EB600C75822DC002120854D0026D
:10098000801C30070C75822BC002120854D00280E4
:100990000D30080A758220C002120854D002783542
:1009A0008604BC2E0C758230C002120854D0021589
:1009B0002CAC2C152CC3E52B9C4003020A687582D5
:1009C00030C002120854D00280E7AC2C152CC3E5CD
:1009D0002B9C500C758220C002120854D00280EA71
:1009E00078348604BC2D0C75822DC002120854D0B8
:1009F00002801C30070C75822BC002120854D002F2
:100A0000800D30080A758220C002120854D0027886
:100A1000358604BC2E52758230C002120854D002B2
:100A2000152C8044EB600E75822DC002120854D044
:100A300002152C802030070E75822BC0021208543C
:100A4000D002152C800F30080C758220C0021208CD
:100A500054D002152C78358603BB2E0C758230C01D
:100A600002120854D002152C752F01C20EE52F2456
:100A700034F88603BB4503020B25BB2E348A03C31F
:100A8000E464808BF063F08095F0500F758230C085
:100A900003120854D0031B8B0280E48B02D20EE5B4
:100AA0002D7038200C03020B2575822E12085480FD
:100AB00074300E278A03EB30E71FC3E46480852D72
:100AC000F063F08095F0500C758230C0031208542A
:100AD000D003152D0B8B0280DD8B02300E0EC3E48C
:100AE0006480852DF063F08095F05021E52F24344B
:100AF000F886038B82C002120854D002300E0EE535
:100B00002F2434F88603BB2E028002152D152CC32A
:100B1000E46480852DF063F08095F04003200E059D
:100B2000052F020A6DC3E46480852DF063F0809583
:100B3000F0500A758230120854152D80E830050FE8
:100B4000AA2C152CEA600875822012085480F12224
:100B5000E52D7003300C0D7407252DFAE52CC39A92
:100B6000F52C8006E52C24FAF52C752F00783486B8
:100B700002BA2B0F20070C78347620200805752F39
:100B800001052C200519AA2CC3E464808AF063F0C7
:100B90008095F0500A758220120854152C80E7C207
:100BA0000EE52F2434F88602BA00028069BA451F88
:100BB0003001027665C3E46480852DF063F0809592
:100BC000F0500A758230120854152D80E8D20EC3F9
:100BD000E52F9402E433FA7014EA700EC3E46480E3
:100BE000852DF063F08095F04003300E16E52F243C
:100BF00034F886028A82120854E52F24FD5012151B
:100C00002D800E7402B52F09300C0675822E120845
:100C100054052F020BA1300519AA2CC3E464808A65
:100C2000F063F08095F0500A758220120854152C5C
:100C300080E722858222858323E4F529F52AAA30DC
:100C4000AB31AC328A828B838CF01205A2FD740129
:100C50002AF530E43BF5318C32EDFA70030211D9FC
:100C6000BA250280030211D1C205C206C207C2081A
:100C7000C209C20AC20BC20CC202C203C204752B53
:100C800000752C00752DFFAB30AC31AD328B828CF2
:100C9000838DF01205A2FAA3AB82AC838B308C312A
:100CA0008D32BA25078A8212085480928A06BE3095
:100CB00000402E8A06EE24C6402774FFB52D13E5AA
:100CC0002C75F00AA4FEEA24D02EF52C70BFD206B3
:100CD00080BBE52D75F00AA4FEEA24D02EF52D8008
:100CE000ACBA2E0A74FFB52DA4752D00809F8A061C
:100CF000BE6100400E8A06EE248540075302DFD213
:100D0000018002C201BA20028075BA2303020D8E4F
:100D1000BA2A03020D93BA2B02805FBA2D028055C6
:100D2000BA4202805FBA4303020DD8BA4403020FED
:100D300013BA4503020F2DBA4603020F29BA47031F
:100D4000020F31BA4903020F13BA4C02803BBA4E6C
:100D500003020F35BA4F03020F1ABA5003020EAC4A
:100D6000BA5303020DFCBA5503020F1FBA5803020F
:100D70000F24020F5FD205020C8DD207020C8DD218
:100D800008020C8DD20A020C8DD20B020C8DD20CF3
:100D9000020C8D74FFB52D20300A0BE53314F88852
:100DA00033862C020C8DE53324FEF8883386060842
:100DB0008607188E2C020C8D300A0BE53314F88848
:100DC00033862D020C8DE53324FEF8883386060821
:100DD0008607188E2D020C8D300A0AE53314F88828
:100DE000338602800FE53324FEF8883386030886B5
:100DF00004188B028A82120854020F64E53324FD22
:100E0000F88833860308860408860518188B248C16
:100E1000258D268B828C838DF0121341AB82AC839F
:100E20008B2E74FFB52D03852E2D20051DC3E52EB9
:100E3000952C5016E52CC3952EF52CAB2C152CEBD0
:100E4000600875822012085480F1852482852583EC
:100E50008526F01205A2FBFA6029AB2D152DC3E4FF
:100E600064808BF063F08095F050188A82120854E9
:100E7000AB24AC25AD260BBB00010C8B248C258D3F
:100E80002680C7200503020F64C3E52E952C40037E
:100E9000020F64E52CC3952EF52CAB2C152CEB70B2
:100EA00003020F6475822012085480EEE53324FD9E
:100EB000F88833860308860408860518188B248C66
:100EC000258D26E526FB30E7047A438013EB54603A
:100ED00060047A50800AEB30E6047A4980027A583E
:100EE0008A82C00212085475823A12085475823000
:100EF000120854758278120854D002BA4902800B45
:100F0000BA5002800685258212088785248212083D
:100F1000878051D209752B0A804A752B0880457548
:100F20002B0A8040752B10803BD2028037D2038081
:100F300033D204802FE53324FDF8883386030886F6
:100F40000408860518188B248C258D268B828C83AB
:100F50008DF0E52912070EA3E52A12070E80058AF7
:100F600082120854200206200303300470E5332463
:100F7000FCF8883386030886040886050886061868
:100F800018188B248C258D268E27E524E525E5264B
:100F9000E5278B828C838DF0EE12122274FFB52D23
:100FA00003752D06300427747F5527FB8B28E52811
:100FB000EB2BFB8B28E52630E70674014528F52846
:100FC000E52824684006749925284002D20330039E
:100FD00006120B50020C3E1208DD020C3EE52B708F
:100FE00003020C3E7B39300A2BE53314F88833E6D4
:100FF000FC3395E0FDFEFF8C248D258E268F272067
:10100000095EAC247D007E007F008C248D258E2619
:101010008F27804C300B1FE53324FCF8883386047F
:101020000886050886060886071818188C248D255A
:101030008E268F27802AE53324FEF888338604081D
:10104000860518ED3395E0FEFF8C248D258E268FC6
:101050002720090CAC24AD257E007F008E268F272B
:10106000300C43E52445254526452760397408B5ED
:101070002B0C758230C003120854D00380287410E2
:10108000B52B23758230C003120854D00330010CF5
:10109000758278C003120854D003800A758258C044
:1010A00003120854D003300925AC24AD25AE26E543
:1010B00027FF30E717C3E49CFCE49DFDE49EFEE4BB
:1010C0009FFF8C248D258E268F278002C209752EC6
:1010D00000D20D8B00752800C00012089ED00020A1
:1010E0000D0DE528C4FCE6FD4CF61888038002A629
:1010F00028052EB20DE52445254526452770D688BE
:1011000003E52C7003752C0120061A200517E52E27
:1011100004FCC3952C500E758220C003120854D0D5
:1011200003152C80E930090E75822DC00312085476
:10113000D003152C8024E52E602030070E75822BFD
:10114000C003120854D003152C800F30080C758290
:1011500020C003120854D003152C20051EAC2C15FA
:101160002CC3E52E9C50273006047C3080027C2066
:101170008C82C003120854D00380E2C3E52E952C64
:101180005009E52CC3952EF52C8003752C008B009F
:10119000AB2E152EEB6022B20D200D0A08E6C454CA
:1011A0000FFB8B2880078603740F5BF52885288248
:1011B000C00012086ED00080D7200503020C3EABA1
:1011C0002C152CEB7003020C3E7582201208548003
:1011D000EE8A82120854020C3E852982852A8322D7
:1011E000AA82BA0A0810990280FB75990D1099021B
:1011F00080FB8A9922FCABF0AA83A982749EF582B7
:10120000C2D1EC30E716D2D1E9F42401F9EAF43482
:1012100000FAEBF43400FBECF43400FC1207830218
:101220000734C0E0F84582458345F07009F5F0FBCE
:10123000FCFDFE0212F0E823A2F792E0F8A982AAD0
:1012400083D2F7ABF07C007E07C37497984040745C
:10125000FF2EFE740A89F0A4F985F082740A8AF0E0
:10126000A4FA85F083740A8BF0A4FB740529F9EACB
:101270003582FAEB3583FB740035F0FCC3EC13FCCC
:10128000EB13FBEA13FAE913F908EC70EF80BAE804
:10129000C3947FF88B838EF0E4FBFCFDFEFF08C354
:1012A000E933F9EA33FAE58333F583EB3BD4FBEC1E
:1012B0003CD4FCED3DD4FDEE3ED4FEEF3FD4FF60C8
:1012C0002D05F074052BD4FBE43CD4FCE43DD4FDA7
:1012D000E43ED4FEE43FD4FF758204C3EF13FFEE77
:1012E00013FEED13FDEC13FCEB13FBD582EDD8AF31
:1012F0007834D0E020E704762B8002762D0879063A
:10130000E7C4540F4430F608B90603762E08E754B4
:101310000F4430F60819B902E7764508E5F020E7F2
:1013200004762B8004762DF4040875F00A8444308A
:10133000F608E5F04430F608E4F690003475F04025
:1013400022AA82AB83ACF07D007E008A828B838CE4
:10135000F01205A2FFA3AA82AB83EF60070DBD00C8
:10136000EA0E80E78D828E832200000000000000DC
:00000001FF
