:1000000002000375814C12019FE582600302006FBC
:10001000780079007A007B007C007D00EC4D601C4C
:1000200088828983E493A3A882A9838A828B83F040
:10003000A3AA82AB831CBCFFE31D80E07582007520
:1000400083007C007D00EC4D600AE4F0A31CBCFF43
:10005000F51D80F27582007583007C007D00EC4DFB
:10006000600AE4F0A31CBCFFF51D80F212019E1291
:1000700004D480FE506C61636520636C6970206FEE
:100080006E2020200052696E672066696E67657277
:100090006E61696C001B5B324A0045464D3820504A
:1000A0006572696F64206D6561737572656D656EEB
:1000B000742061742070696E2050322E3020757368
:1000C000696E672054696D657220302E0A46696C2E
:1000D000653A2025730A436F6D70696C65643A2038
:1000E00025732C2025730A0A00433A5C5573657208
:1000F000735C636172736F5C446F63756D656E747E
:10010000735C312E205363686F6F6C5C302E20530C
:100110007072696E6720323031385C456C656320DF
:100120003239325C6C6162345C68725F6D6F6E692B
:10013000746F722E63004D61722020312032303195
:10014000380031303A34323A3138000D543D2566AA
:10015000206D7320202020000D4E6F742073746179
:10016000626C6520796574004852204E6F7420538C
:100170007461626C65000D706572696F643D25661F
:100180007320202020686561727420726174653D5F
:10019000256462706D0925730042504D3A00227546
:1001A000A7007597DE7597AD43FF8075EF0275A7C1
:1001B0001075C12075A70075A90075A900E5A930C3
:1001C000E7FB75A90375A903E5A930E7FB43A41074
:1001D00075E10175E20075E340759810858E8E75A6
:1001E0008DE6858D8B53890F438920D28ED29975E8
:1001F000820022AA82438E407592B87593FF859241
:10020000948593957591047B00C3EB9A500BE5910F
:1002100030E7FB53917F0B80F075910022AA82ABEF
:10022000837C007D00C3EC9AED9B502B7E00BE04C6
:1002300000501D7582FAC002C003C004C005C0068C
:100240001201F3D006D005D004D003D0020E80DE18
:100250000CBC00D10D80CE22D2A57582281201F3EC
:10026000C2A522AA828AE0A2E792A1A2E692A2A255
:10027000E592A3A2E492A4C0021202587582281249
:1002800001F3D0028AE0A2E392A1A2E292A2A2E14B
:1002900092A3A2E092A4020258AA82D2A68A821253
:1002A000026390000202021DAA82C2A68A82120282
:1002B0006390000502021DC2A590001412021D7574
:1002C00082331202A87582331202A875823212029A
:1002D000A87582281202A875820C1202A8758201E4
:1002E0001202A890001402021DAA82AB83ACF07423
:1002F00002B523047DC080027D808D82C002C003D0
:10030000C0041202A890000512021DD004D003D030
:10031000027D007E00ED2AFFEE3BF88C018F828883
:100320008389F01209AFFF60208F82C002C003C032
:1003300004C005C006120299D006D005D004D0032F
:10034000D0020DBD00CF0E80CC3000248D028E0374
:10035000C3EA9410EB648094805015758220C0022B
:10036000C003120299D003D0020ABA00E30B80E066
:1003700022AA82AB83ACF07402B524047DC0800253
:100380007D808D82C002C003C0041202A8900005C7
:1003900012021DD004D003D002E4F525F526FFF8A3
:1003A000EF2AF9E83BFD8C0689828D838EF01209D5
:1003B000AFF9600F0525E4B5250205260FBF00E063
:1003C0000880DDE52524FFFDE52634FFFEEE20E76D
:1003D00031ED2AFFEE3BF88C018F82888389F01281
:1003E00009AFF582C002C003C004C005C0061202F6
:1003F00099D006D005D004D003D0021DBDFF011E48
:1004000080CB3001248D028E03C3EA9410EB64800C
:1004100094805015758220C002C003120299D00347
:10042000D0020ABA00E30B80E02285822985832A64
:1004300085F02BE4F52CF52DE52724FFFFE5283486
:10044000FFF879007A00C3E99FEA648088F063F0DE
:100450008095F05059C002C007C000C001120C1FA7
:10046000AB82D001D000D007D002BB0A028003BB10
:100470000D1DE52C2529FCE52D352AFDAE2B8C82A2
:100480008D838EF0E4120C32852C82852D8322E937
:100490002529FCEA352AFDAE2B8C828D838EF0EB6C
:1004A000120C3209B900010A892C8A2D8098E52C9A
:1004B0002529FAE52D352AFBAC2B8A828B838CF01B
:1004C000E4120C32852782852883225389F04389E0
:1004D00001C28C22E4F532F533F534F535F536F505
:1004E00037F53AF53BF53C1204CB1202B775230100
:1004F000D20090007475F0801202E9752302D200D8
:1005000090008575F0801202E99003E812021D74D4
:1005100095C0E07400C0E07480C0E0120BC8158183
:10052000158115817442C0E07401C0E07480C0E0A0
:100530007436C0E07401C0E07480C0E074E9C0E0CB
:100540007400C0E07480C0E0749AC0E07400C0E041
:100550007480C0E0120BC8E58124F4F581758A002F
:10056000758C00C28D75220020A0FD30A0FDD28CBC
:1005700030A009108D0280F8052280F420A0091017
:100580008D0280F8052280F4C28C852282120B4FE6
:10059000AF82AA83ABF0FCC007C002C003C00490C6
:1005A000000075F0807447120AACAA82AB83ACF0ED
:1005B000FDE58124FCF581858C82C002C003C00466
:1005C000C005120B4FAF82AE83A8F0F9C007C0067A
:1005D000C000C00190000075F0807443120AACAEF8
:1005E00082AF83A8F0F9E58124FCF581D005D00421
:1005F000D003D002C006C007C000C0018A828B832E
:100600008CF0ED120B5AAA82AB83ACF0FDE581248D
:10061000FCF581AE8A7F008E828F83C002C003C04A
:1006200004C005120C8EAE82AF83A8F0F9D005D0BD
:1006300004D003D002C006C007C000C0018A828B6C
:10064000838CF0ED120B5AAA82AB83ACF0FDE581EE
:1006500024FCF581C002C003C004C00590F4FC7501
:10066000F0327434120AAC85822E85832F85F030E7
:10067000F531E58124FCF581C02EC02FC030C0319A
:1006800090000075F07A7444120AACAE82AF83A871
:10069000F0F9E58124FCF581C006C007C000C00167
:1006A000744BC0E07401C0E07480C0E0120BC8E578
:1006B0008124F9F581C02EC02FC030C031900000D8
:1006C00075F0707442120C9BAE82AF83A8F0F9E50E
:1006D0008124FCF581E53645376003020778C006C2
:1006E000C007C000C001E4C0E0C0E07420C0E074F6
:1006F00042C0E08E828F8388F0E9120A7CAA82E5EC
:100700008124FCF581D001D000D007D006EA7042E8
:10071000C006C007C000C001E4C0E0C0E07434C03F
:10072000E07443C0E08E828F8388F0E91209CBAA7F
:1007300082E58124FCF581D001D000D007D006EA03
:1007400070108E328F3388348935753601E4F53771
:1007500080267458C0E07401C0E07480C0E0120BC1
:10076000C8158115811581752302D2009001687525
:10077000F0801202E902055DC006C007C000C0019A
:10078000E4C0E0C0E07420C0E07442C0E08E828F1C
:100790008388F0E9120A7CAA82E58124FCF581D0E5
:1007A00001D000D007D006EA6003020892C006C05C
:1007B00007C000C001E4C0E0C0E07434C0E074438E
:1007C000C0E08E828F8388F0E91209CBAA82E5818E
:1007D00024FCF581D001D000D007D006EA600302E6
:1007E0000892C006C007C000C001C032C033C03488
:1007F000C0358E828F8388F0E9120C83AA82AB8386
:10080000ACF0FDE58124FCF581E4C0E0C0E074209B
:10081000C0E07442C0E08A828B838CF0ED120A7CC7
:10082000AA82E58124FCF581D001D000D007D00652
:10083000EA7055C006C007C000C001C006C007C0AE
:1008400000C0018532828533838534F0E535120C92
:1008500083AA82AB83ACF0FDE58124FCF581E4C082
:10086000E0C0E07420C0E07442C0E08A828B838CD8
:10087000F0ED120A7CAA82E58124FCF581D001D03A
:1008800000D007D006EA600A8E328F33883489356B
:100890008008AE32AF33A834A935C032C033C0347B
:1008A000C0358E828F8388F0E9120B5AAA82AB83FF
:1008B000ACF0FDE58124FCF581E4C0E0C0E0C0E0DF
:1008C0007440C0E08A828B838CF0ED120C9BAE8268
:1008D000AF83A8F0F9E58124FCF5818E828F8388AF
:1008E000F0E9120A48AA82AB83C002C003C03AC032
:1008F0003BC03CC002C003C02EC02FC030C031740A
:1009000076C0E07401C0E07480C0E0120BC8E581DD
:1009100024F4F581D003D002E4F538F539EA4B60D0
:1009200056E538253AFEE539353BFFA83C751C0AEB
:10093000E4F51D8A828B83C002C003C006C007C0D5
:1009400000120BE9A982D000D007D006D003D00254
:100950007430298E828F8388F0120C32751C0AE461
:10096000F51D8A828B83120C4BAA82AB830538E477
:10097000B538AA053980A6E538253AFAE539353B78
:10098000FBAC3C8A828B838CF0E4120C3275230121
:10099000D20090019975F0801202E9752402D2010B
:1009A000853A82853B83853CF012037102055D2008
:1009B000F71430F6148883A88220F507E6A883751B
:1009C000830022E280F7E49322E022FFA881181836
:1009D000120E01D2D133E6400730E70B75820122B7
:1009E00020E70675820022C2D1120DE3E97003F5FB
:1009F000822230D101B3E433F58222E51C451D602B
:100A0000467A01E51C25E0F51CE51D334012F51D75
:100A1000E582951CE583951D40030A80E6C3E51D2C
:100A200013F51DE51C13F51CC3E582951CF5F0E5D7
:100A300083951D4005F58385F082C3E51D13F51DE3
:100A4000E51C13F51CDAE122120E2C700AE5824532
:100A50008345F0700122E430D112F4700BE5F0F41C
:100A60007006E58330E7012290800022700AE5F0ED
:100A70007006E58320E70122907FFF22FFA88118FE
:100A800018120E01D2D133E6400730E70B75820011
:100A90002220E70675820122C2D1120DE3E970031C
:100AA000F5822220D101B3E433F58222120F09BC72
:100AB0000003020EA8EF60FA30D502B2D1E583B48C
:100AC000FF03020EBEE582B4FF03020EBE25834083
:100AD000072482400B020EA82483145003020EBE8A
:100AE000F582EA8DF0A4A8F0EA8EF0A428F8E435A7
:100AF000F0F9EB8DF0A428E935F0F9E433CA8FF072
:100B0000A429F9EA35F0FAEBF88EF0A429F9EA35D0
:100B1000F0FAE433FBEC8DF0A429F9EA35F0FAE4BD
:100B20003BFBE88FF0A42AFAEB35F0FBE433CCFD75
:100B30008EF0A42AFAEB35F0FBE43CFCED8FF0A438
:100B40002BFBEC35F0FC20E703120ED6020E87E4F7
:100B5000AC82FBFAF97486020F40120F097900E5A6
:100B600083B58202800D5003120F4AE583C395823C
:100B7000120F64E5D0C465D020E117EA2DFAEB3EF0
:100B8000FBEC3FFC50097401120F64EC4480FC0242
:100B90000E87C3EA9DFAEB9EFBEC9FFC500FC3E46B
:100BA00099F9E49AFAE49BFBE49CFCB2D1120ED6CC
:100BB000020E8702193385821885831985F01A85FC
:100BC000091B900BB3021386C008858108E5082431
:100BD000FBF51BE50824FBF8861808861908861A19
:100BE000900BB3121386D00822C2D5E58330E70DEF
:100BF000D2D5E4C39582F582E49583F583E51D3073
:100C0000E70BE4C3951CF51CE4951DF51D1209FBCB
:100C100030D50BE4C39582F582E49583F5832210E9
:100C2000980280FBAA998A82C002121933D0028AE4
:100C3000822220F71030F6118883A88220F507F66B
:100C4000A88375830022F280F7F022C2D5E58330B5
:100C5000E70DD2D5E4C39582F582E49583F583E56B
:100C60001D30E70DB2D5E4C3951CF51CE4951DF5C8
:100C70001D120DBA30D50BE4C39582F582E495833D
:100C8000F58322A8811818C6B2E7C6020B5AAC83B6
:100C9000AB827A007900748E021951120F0930D597
:100CA00002B2D1BF0009BC0003020ECB020EBEBCD3
:100CB0000003020EA8E583B4FF0BE582B4FF030234
:100CC0000ECB020EA8E582B4FF03020EBEC39583CD
:100CD0005007247F400B020EA82480145003020EFC
:100CE000BEC0E0E4CCCBCAF98D1C8E1D8F1EEF5424
:100CF000F0C4F51F758306851FF0EB84F582E9C407
:100D0000F9EAC4FAEBC4FBEC540FC47803D6FC1820
:100D1000EBD6FB18EAD6FA8582F0EDA4A8F0FD85A3
:100D200082F0EEA428FEE435F0F88582F0EFA428E6
:100D3000FFE435F0F8E99DF9EA9EFAEB9FFBEC98A9
:100D4000FCAD1CAE1DAF1E30E7101582E92DF9EA8F
:100D50003EFAEB3FFBE43CFC80EDC082D58398C3B8
:100D6000E933F9EA33FAEB33FBEC33FCC3E99DEAF0
:100D70009EEB9FEC9400B3E413F9D002D0E0C44A98
:100D8000FAD003D0E0C44BFBD004D0E0F5F0540F10
:100D9000C44CFCD082158230F40FD3EC13FCEB135F
:100DA000FBEA13FAE913F90582E930E70A74012A2C
:100DB000FAE43BFBE43CFC020E9F7A10E4FBFCE50A
:100DC0008225E0F582E58333F583EB33FBEC33FCDE
:100DD000EB951CF5F0EC951D4006FCABF043820151
:100DE000DADD227901AA82E68F82B5821318E6B590
:100DF000F00E18E6B5830918E68A82B582027900FA
:100E000022B4800FE5F0700AE5837006E582700277
:100E10007F00EFB6801518B6001018B6000B18B694
:100E2000000608080876002208080822121975C36F
:100E3000749E958240397900120F6430D126E9F40E
:100E40002401F582EAF43400F583EBF43400F5F084
:100E5000ECF43400700AE582458345F0700122E429
:100E600030E70F22EC20E71489828A838BF022304E
:100E7000D10AE4F582F583F5F074802274FFF582DF
:100E8000F583F5F0747F22B98003EA13B34010EACA
:100E90002401FAE43BFBE43CFC50047C800582BC6A
:100EA000000EBB000BBA0008E4F5F0F583F58222D2
:100EB000A2D1E582138CF092F78B838A8222E4F52B
:100EC00083F58275F080F4A2D11322E4F583F582D4
:100ED00075F0C0747F227804EC7011E58224F8501C
:100EE0000AF582E4C9CACBFCD8EF22EC782005824F
:100EF00020E713D5820122C3E933F9EA33FAEB3351
:100F0000FBEC33FCD8EA158222AA82AB83A2F7332A
:100F100092D16002D2F7F582ACF0E58124F9F8E6CF
:100F2000FD08E6FE0886F008E6A2F73392D56002D7
:100F3000D2F7F583AFF022FCABF0AA83A982749EAE
:100F4000C2D1F582120ED6020E87E582C583F582E4
:100F5000A2D133A2D592D11392D5ECCFFCEBCEFB2C
:100F6000EACDFA226040F82582500274FFF582E84B
:100F700024F8501ECCCBCAF9E4CC24F85014CBCAC8
:100F8000F9E4CB24F8500BCAF9E4CA24F8500379E9
:100F9000002224086010F8C3EC13FCEB13FBEA13E7
:100FA000FAE913F9D8F122AA8274B8C0E0740FC02C
:100FB000E0C00AC00B8A82220511E4B511020512B5
:100FC00022AA8274302AFA24C6500A74072AFA30F8
:100FD00002034302208A82020FA7E582FAC4540F5B
:100FE000F582C002120FC1D002740F5AF582020FAF
:100FF000C1AA0CAB0DAC0EAD0FAE10751720EE2EC6
:10100000FEED235401FF4206EA2AFAEB33FBEC33F0
:10101000FCED33FDC3EE95134008EEC39513FE437C
:101020000201D517D98A0C8B0D8C0E8D0F8E1022D4
:101030007849E624D075F00AA4FA784AE624D02A42
:10104000FA78488603BB2D04C3E49AFA751301C3EA
:10105000E464808AF063F08095F050297517038A64
:101060000374F62517401C0513E51714243DF8E515
:1010700017243DF98704A604772E1BEBFA600405BC
:101080001780DE8B02EA30E70D783E8603783FA6B4
:1010900003783E762E0AE515600AE51504FB251354
:1010A000F5138005300D020513783D8603E4BB2D52
:1010B0000104FB7006200803300902051330060303
:1010C000021177300757EB600C75822DC002120FAA
:1010D000A7D002801C30080C75822BC002120FA70B
:1010E000D002800D30090A758220C002120FA7D0ED
:1010F00002783E8604BC2E0C758230C002120FA707
:10110000D0021514AC141514C3E5139C400302114E
:10111000BB758230C002120FA7D00280E7AC141555
:1011200014C3E5139C500C758220C002120FA7D087
:101130000280EA783D8604BC2D0C75822DC0021217
:101140000FA7D002801C30080C75822BC002120F32
:10115000A7D002800D30090A758220C002120FA7A5
:10116000D002783E8604BC2E52758230C002120F27
:10117000A7D00215148044EB600E75822DC00212B8
:101180000FA7D0021514802030080E75822BC002E4
:10119000120FA7D0021514800F30090C758220C0E1
:1011A00002120FA7D0021514783E8603BB2E0C75D1
:1011B0008230C002120FA7D0021514751701C20F9A
:1011C000E517243DF88603BB4503021278BB2E3495
:1011D0008A03C3E464808BF063F08095F0500F7550
:1011E0008230C003120FA7D0031B8B0280E48B0256
:1011F000D20FE5157038200D0302127875822E1279
:101200000FA78074300F278A03EB30E71FC3E46415
:10121000808515F063F08095F0500C758230C00326
:10122000120FA7D00315150B8B0280DD8B02300F38
:101230000EC3E464808515F063F08095F05021E5DD
:1012400017243DF886038B82C002120FA7D002300C
:101250000F0EE517243DF88603BB2E0280021515FC
:101260001514C3E464808515F063F08095F04003A5
:10127000200F0505170211C0C3E464808515F063D3
:10128000F08095F0500A758230120FA7151580E88E
:1012900030060FAA141514EA6008758220120FA7F1
:1012A00080F122E5157003300D0D74072515FAE560
:1012B00014C39AF5148006E51424FAF51475170082
:1012C000783D8602BA2B0F20080C783D7620200945
:1012D000057517010514200619AA14C3E464808A51
:1012E000F063F08095F0500A758220120FA7151454
:1012F00080E7C20FE517243DF88602BA0002806934
:10130000BA451F3002027665C3E464808515F06338
:10131000F08095F0500A758230120FA7151580E8FD
:10132000D20FC3E5179402E433FA7014EA700EC3C7
:10133000E464808515F063F08095F04003300F166B
:10134000E517243DF886028A82120FA7E51724FDCF
:1013500050121515800E7402B51709300D067582EE
:101360002E120FA705170212F4300619AA14C3E4AF
:1013700064808AF063F08095F0500A758220120F25
:10138000A7151480E72285820A85830BE4F511F501
:1013900012AA18AB19AC1A8A828B838CF01209AF8F
:1013A000FD74012AF518E43BF5198C1AEDFA700367
:1013B00002192CBA25028003021924C206C207C2F0
:1013C00008C209C20AC20BC20CC20DC203C204C2C7
:1013D000057513007514007515FFAB18AC19AD1A1F
:1013E0008B828C838DF01209AFFAA3AB82AC838B16
:1013F000188C198D1ABA25078A82120FA780928A33
:1014000006BE3000402E8A06EE24C6402774FFB583
:101410001513E51475F00AA4FEEA24D02EF5147015
:10142000BFD20780BBE51575F00AA4FEEA24D02ED2
:10143000F51580ACBA2E0A74FFB515A47515008099
:101440009F8A06BE6100400E8A06EE24854007533F
:1014500002DFD2028002C202BA20028075BA2303E0
:101460000214E1BA2A030214E6BA2B02805FBA2DF5
:10147000028055BA4202805FBA430302152BBA4478
:1014800003021666BA4503021680BA460302167CAA
:10149000BA4703021684BA4903021666BA4C0280A0
:1014A0003BBA4E03021688BA4F0302166DBA5003B8
:1014B0000215FFBA530302154FBA5503021672BA4A
:1014C00058030216770216B2D2060213E0D20802BF
:1014D00013E0D2090213E0D20B0213E0D20C021384
:1014E000E0D20D0213E074FFB51520300B0BE51BA5
:1014F00014F8881B86140213E0E51B24FEF8881BF1
:101500008606088607188E140213E0300B0BE51BC5
:1015100014F8881B86150213E0E51B24FEF8881BCF
:101520008606088607188E150213E0300B0AE51BA5
:1015300014F8881B8602800FE51B24FEF8881B86A2
:1015400003088604188B028A82120FA70216B7E5D9
:101550001B24FDF8881B86030886040886051818D6
:101560008B0C8C0D8D0E8B828C838DF0121AA6AB9A
:1015700082AC838B1674FFB5150385161520061DE6
:10158000C3E51695145016E514C39516F514AB145F
:101590001514EB6008758220120FA780F1850C826C
:1015A000850D83850EF01209AFFBFA6029AB151586
:1015B00015C3E464808BF063F08095F050188A8244
:1015C000120FA7AB0CAC0DAD0E0BBB00010C8B0CBE
:1015D0008C0D8D0E80C72006030216B7C3E5169545
:1015E0001440030216B7E514C39516F514AB141591
:1015F00014EB70030216B7758220120FA780EEE578
:101600001B24FDF8881B8603088604088605181825
:101610008B0C8C0D8D0EE50EFB30E7047A438013A6
:10162000EB546060047A50800AEB30E6047A49801B
:10163000027A588A82C002120FA775823A120FA747
:10164000758230120FA7758278120FA7D002BA499F
:1016500002800BBA50028006850D82120FDA850CCB
:1016600082120FDA8051D20A75130A804A75130864
:10167000804575130A8040751310803BD203803774
:10168000D2048033D205802FE51B24FDF8881B8609
:101690000308860408860518188B0C8C0D8D0E8B9C
:1016A000828C838DF0E511120C32A3E512120C32FC
:1016B00080058A82120FA7200306200403300570DC
:1016C000E51B24FCF8881B860308860408860508A9
:1016D00086061818188B0C8C0D8D0E8E0FE50CE5F8
:1016E0000DE50EE50F8B828C838DF0EE1219877459
:1016F000FFB51503751506300527747F550FFB8B55
:1017000010E510EB2BFB8B10E50E30E7067401455E
:1017100010F510E51024684006749925104002D297
:10172000043004061212A302139112103002139116
:10173000E51370030213917B42300B2BE51B14F869
:10174000881BE6FC3395E0FDFEFF8C0C8D0D8E0EA4
:101750008F0F200A5EAC0C7D007E007F008C0C8D0C
:101760000D8E0E8F0F804C300C1FE51B24FCF8886B
:101770001B86040886050886060886071818188C34
:101780000C8D0D8E0E8F0F802AE51B24FEF8881B12
:10179000860408860518ED3395E0FEFF8C0C8D0D50
:1017A0008E0E8F0F200A0CAC0CAD0D7E007F008ECC
:1017B0000E8F0F300D43E50C450D450E450F60397A
:1017C0007408B5130C758230C003120FA7D00380C4
:1017D000287410B51323758230C003120FA7D003ED
:1017E00030020C758278C003120FA7D003800A75EF
:1017F0008258C003120FA7D003300A25AC0CAD0DE0
:10180000AE0EE50FFF30E717C3E49CFCE49DFDE45A
:101810009EFEE49FFF8C0C8D0D8E0E8F0F8002C2FA
:101820000A751600D20E8B00751000C000120FF161
:10183000D000200E0DE510C4FCE6FD4CF618880320
:101840008002A6100516B20EE50C450D450E450F9B
:1018500070D68803E514700375140120071A20065A
:1018600017E51604FCC39514500E758220C00312B0
:101870000FA7D003151480E9300A0E75822DC0031E
:10188000120FA7D00315148024E516602030080E2F
:1018900075822BC003120FA7D0031514800F3009D7
:1018A0000C758220C003120FA7D003151420061E4A
:1018B000AC141514C3E5169C50273007047C308007
:1018C000027C208C82C003120FA7D00380E2C3E504
:1018D0001695145009E514C39516F5148003751474
:1018E000008B00AB161516EB6022B20E200E0A0814
:1018F000E6C4540FFB8B1080078603740F5BF51052
:10190000851082C000120FC1D00080D720060302CC
:101910001391AB141514EB7003021391758220120E
:101920000FA780EE8A82120FA7021391851182857C
:10193000128322AA82BA0A0810990280FB75990DB7
:1019400010990280FB8A9922FCABF0AA83A98274C9
:101950009EF582C2D1EC30E716D2D1E9F42401F928
:10196000EAF43400FAEBF43400FBECF43400FC123B
:101970000ED6020E87AA82AB83A2F73392D1600201
:10198000D2F7F582ACF022C0E0F84582458345F0FD
:101990007009F5F0FBFCFDFE021A55E823A2F79250
:1019A000E0F8A982AA83D2F7ABF07C007E07C3746B
:1019B0009798404074FF2EFE740A89F0A4F985F0D0
:1019C00082740A8AF0A4FA85F083740A8BF0A4FB6F
:1019D000740529F9EA3582FAEB3583FB740035F09A
:1019E000FCC3EC13FCEB13FBEA13FAE913F908EC64
:1019F00070EF80BAE8C3947FF88B838EF0E4FBFC31
:101A0000FDFEFF08C3E933F9EA33FAE58333F583D2
:101A1000EB3BD4FBEC3CD4FCED3DD4FDEE3ED4FEE0
:101A2000EF3FD4FF602D05F074052BD4FBE43CD4CC
:101A3000FCE43DD4FDE43ED4FEE43FD4FF758204D3
:101A4000C3EF13FFEE13FEED13FDEC13FCEB13FBE2
:101A5000D582EDD8AF783DD0E020E704762B800228
:101A6000762D087906E7C4540F4430F608B906030A
:101A7000762E08E7540F4430F60819B902E7764588
:101A800008E5F020E704762B8004762DF404087531
:101A9000F00A844430F608E5F04430F608E4F690A5
:101AA000003D75F04022AA82AB83ACF07D007E0041
:101AB0008A828B838CF01209AFFFA3AA82AB83EFDB
:101AC00060070DBD00EA0E80E78D828E8322000044
:00000001FF
