:1000000002000375814C12019AE582600302006FC1
:10001000780079007A007B007C007D00EC4D601C4C
:1000200088828983E493A3A882A9838A828B83F040
:10003000A3AA82AB831CBCFFE31D80E07582007520
:1000400083007C007D00EC4D600AE4F0A31CBCFF43
:10005000F51D80F27582007583007C007D00EC4DFB
:10006000600AE4F0A31CBCFFF51D80F21201991296
:1000700004CF80FE506C61636520636C6970206FF3
:100080006E2020200052696E672066696E67657277
:100090006E61696C001B5B324A0045464D3820504A
:1000A0006572696F64206D6561737572656D656EEB
:1000B000742061742070696E2050322E3020757368
:1000C000696E672054696D657220302E0A46696C2E
:1000D000653A2025730A436F6D70696C65643A2038
:1000E00025732C2025730A0A00433A5C5573657208
:1000F000735C636172736F5C446F63756D656E747E
:10010000735C312E205363686F6F6C5C302E20530C
:100110007072696E6720323031385C456C656320DF
:100120003239325C6C6162345C68725F6D6F6E692B
:10013000746F722E6300466562203238203230318F
:10014000380032303A32373A3432000D543D2566A9
:10015000206D7320202020000D4E6F742073746179
:10016000626C6520796574004852204E6F7420538C
:100170007461626C65000D706572696F643D25661F
:100180007320202020686561727420726174653D5F
:10019000256462706D092573002275A7007597DECE
:1001A0007597AD43FF8075EF0275A71075C1207577
:1001B000A70075A90075A900E5A930E7FB75A9039B
:1001C00075A903E5A930E7FB43A41075E10175E2C9
:1001D0000075E340759810858E8E758DE6858D8B44
:1001E00053890F438920D28ED29975820022AA8228
:1001F000438E407592B87593FF859294859395755B
:1002000091047B00C3EB9A500BE59130E7FB5391CF
:100210007F0B80F075910022AA82AB837C007D0069
:10022000C3EC9AED9B502B7E00BE0400501D7582DE
:10023000FAC002C003C004C005C0061201EED00619
:10024000D005D004D003D0020E80DE0CBC00D10D4E
:1002500080CE22D2A57582281201EEC2A522AA82E2
:100260008AE0A2E792A1A2E692A2A2E592A3A2E46A
:1002700092A4C0021202537582281201EED0028AA3
:10028000E0A2E392A1A2E292A2A2E192A3A2E09252
:10029000A4020253AA82D2A68A8212025E900002AF
:1002A000020218AA82C2A68A8212025E9000050289
:1002B0000218C2A59000141202187582331202A30C
:1002C0007582331202A37582321202A3758228123C
:1002D00002A375820C1202A37582011202A3900080
:1002E00014020218AA82AB83ACF07402B523047D19
:1002F000C080027D808D82C002C003C0041202A3B0
:10030000900005120218D004D003D0027D007E00B8
:10031000ED2AFFEE3BF88C018F82888389F0120969
:100320005BFF60208F82C002C003C004C005C0060E
:10033000120294D006D005D004D003D0020DBD0027
:10034000CF0E80CC3000248D028E03C3EA9410EBD4
:10035000648094805015758220C002C003120294FC
:10036000D003D0020ABA00E30B80E022AA82AB835A
:10037000ACF07402B524047DC080027D808D82C003
:1003800002C003C0041202A3900005120218D00498
:10039000D003D002E4F525F526FFF8EF2AF9E83B73
:1003A000FD8C0689828D838EF012095BF9600F0542
:1003B00025E4B5250205260FBF00E00880DDE52510
:1003C00024FFFDE52634FFFEEE20E731ED2AFFEEA7
:1003D0003BF88C018F82888389F012095BF582C01B
:1003E00002C003C004C005C006120294D006D005A6
:1003F000D004D003D0021DBDFF011E80CB300124EC
:100400008D028E03C3EA9410EB64809480501575BE
:100410008220C002C003120294D003D0020ABA00A4
:10042000E30B80E02285822985832A85F02BE4F581
:100430002CF52DE52724FFFFE52834FFF879007A15
:1004400000C3E99FEA648088F063F08095F050591A
:10045000C002C007C000C001120BCBAB82D001D0DC
:1004600000D007D002BB0A028003BB0D1DE52C257E
:1004700029FCE52D352AFDAE2B8C828D838EF0E490
:10048000120BDE852C82852D8322E92529FCEA3595
:100490002AFDAE2B8C828D838EF0EB120BDE09B918
:1004A00000010A892C8A2D8098E52C2529FAE52D52
:1004B000352AFBAC2B8A828B838CF0E4120BDE8511
:1004C0002782852883225389F0438901C28C22E444
:1004D000F532F533F534F535F536F537F53AF53BC4
:1004E000F53C1204C61202B2752301D200900074CA
:1004F00075F0801202E4752302D20090008575F039
:10050000801202E49003E81202187495C0E07400AF
:10051000C0E07480C0E0120B7415811581158174E0
:1005200042C0E07401C0E07480C0E07436C0E07482
:1005300001C0E07480C0E074E9C0E07400C0E07401
:1005400080C0E0749AC0E07400C0E07480C0E01223
:100550000B74E58124F4F581758A00758C00C28DD9
:1005600075220020A0FD30A0FDD28C30A009108D96
:100570000280F8052280F420A009108D0280F80581
:100580002280F4C28C852282120AFBAF82AA83AB3E
:10059000F0FCC007C002C003C00490000075F080EA
:1005A0007447120A58AA82AB83ACF0FDE58124FCA3
:1005B000F581858C82C002C003C004C005120AFB0D
:1005C000AF82AE83A8F0F9C007C006C000C001909A
:1005D000000075F0807443120A58AE82AF83A8F011
:1005E000F9E58124FCF581D005D004D003D002C008
:1005F00006C007C000C0018A828B838CF0ED120B0D
:1006000006AA82AB83ACF0FDE58124FCF581AE8ABD
:100610007F008E828F83C002C003C004C005120C0D
:100620003AAE82AF83A8F0F9D005D004D003D0024F
:10063000C006C007C000C0018A828B838CF0ED1217
:100640000B06AA82AB83ACF0FDE58124FCF581C0EA
:1006500002C003C004C00590F4FC75F0327434127B
:100660000A5885822E85832F85F030F531E5812467
:10067000FCF581C02EC02FC030C03190000075F055
:100680007A7444120A58AE82AF83A8F0F9E5812447
:10069000FCF581C006C007C000C001744BC0E07407
:1006A00001C0E07480C0E0120B74E58124F9F5818B
:1006B000C02EC02FC030C03190000075F070744261
:1006C000120C47AE82AF83A8F0F9E58124FCF581D6
:1006D000E53645376003020773C006C007C000C097
:1006E00001E4C0E0C0E07448C0E07442C0E08E8223
:1006F0008F8388F0E9120A28AA82E58124FCF5811B
:10070000D001D000D007D006EA7042C006C007C0B2
:1007100000C001E4C0E0C0E07402C0E07443C0E087
:100720008E828F8388F0E9120977AA82E58124FC02
:10073000F581D001D000D007D006EA70108E328F3C
:100740003388348935753601E4F53780267458C00E
:10075000E07401C0E07480C0E0120B741581158153
:100760001581752302D20090016875F0801202E4B1
:10077000020558C006C007C000C001E4C0E0C0E0E8
:100780007448C0E07442C0E08E828F8388F0E91222
:100790000A28AA82E58124FCF581D001D000D00787
:1007A000D006EA600302088DC006C007C000C00181
:1007B000E4C0E0C0E07402C0E07443C0E08E828F09
:1007C0008388F0E9120977AA82E58124FCF581D0BB
:1007D00001D000D007D006EA600302088DC006C031
:1007E00007C000C001C032C033C034C0358E828F14
:1007F0008388F0E9120C2FAA82AB83ACF0FDE5816F
:1008000024FCF581E4C0E0C0E07420C0E07442C084
:10081000E08A828B838CF0ED120A28AA82E581247B
:10082000FCF581D001D000D007D006EA7055C00693
:10083000C007C000C001C006C007C000C0018532AB
:10084000828533838534F0E535120C2FAA82AB8381
:10085000ACF0FDE58124FCF581E4C0E0C0E074204B
:10086000C0E07442C0E08A828B838CF0ED120A28CB
:10087000AA82E58124FCF581D001D000D007D00602
:10088000EA600A8E328F33883489358008AE32AF01
:1008900033A834A9358E828F8388F0E91209F4AA2F
:1008A00082AB83C002C003C03AC03BC03CC002C0A0
:1008B00003C02EC02FC030C0317476C0E07401C0B8
:1008C000E07480C0E0120B74E58124F4F581D0035C
:1008D000D002E4F538F539EA4B6056E538253AFEA2
:1008E000E539353BFFA83C751C0AE4F51D8A828B6F
:1008F00083C002C003C006C007C000120B95A982C6
:10090000D000D007D006D003D0027430298E828F59
:100910008388F0120BDE751C0AE4F51D8A828B8336
:10092000120BF7AA82AB830538E4B538AA053980E3
:10093000A6E538253AFAE539353BFBAC3C8A828B93
:10094000838CF0E4120BDE752402D201853A828595
:100950003B83853CF012036C02055820F71430F6F7
:10096000148883A88220F507E6A88375830022E215
:1009700080F7E49322E022FFA8811818120DADD26F
:10098000D133E6400730E70B7582012220E7067578
:10099000820022C2D1120D8FE97003F5822230D17C
:1009A00001B3E433F58222E51C451D60467A01E57A
:1009B0001C25E0F51CE51D334012F51DE582951C54
:1009C000E583951D40030A80E6C3E51D13F51DE58B
:1009D0001C13F51CC3E582951CF5F0E583951D40BD
:1009E00005F58385F082C3E51D13F51DE51C13F5A0
:1009F0001CDAE122120DD8700AE582458345F070B9
:100A00000122E430D112F4700BE5F0F47006E583B6
:100A100030E7012290800022700AE5F07006E5833D
:100A200020E70122907FFF22FFA8811818120DAD48
:100A3000D2D133E6400730E70B7582002220E7066B
:100A400075820122C2D1120D8FE97003F582222036
:100A5000D101B3E433F58222120EB5BC0003020EBD
:100A600054EF60FA30D502B2D1E583B4FF03020E31
:100A70006AE582B4FF03020E6A25834007248240A0
:100A80000B020E542483145003020E6AF582EA8D81
:100A9000F0A4A8F0EA8EF0A428F8E435F0F9EB8D84
:100AA000F0A428E935F0F9E433CA8FF0A429F9EA73
:100AB00035F0FAEBF88EF0A429F9EA35F0FAE433D0
:100AC000FBEC8DF0A429F9EA35F0FAE43BFBE88F62
:100AD000F0A42AFAEB35F0FBE433CCFD8EF0A42A27
:100AE000FAEB35F0FBE43CFCED8FF0A42BFBEC358E
:100AF000F0FC20E703120E82020E33E4AC82FBFA14
:100B0000F97486020EEC120EB57900E583B5820207
:100B1000800D5003120EF6E583C39582120F10E587
:100B2000D0C465D020E117EA2DFAEB3EFBEC3FFC88
:100B300050097401120F10EC4480FC020E33C3EA1A
:100B40009DFAEB9EFBEC9FFC500FC3E499F9E49AED
:100B5000FAE49BFBE49CFCB2D1120E82020E33023B
:100B600018DF85821885831985F01A85091B900B7B
:100B70005F021332C008858108E50824FBF51BE5F8
:100B80000824FBF8861808861908861A900B5F124D
:100B90001332D00822C2D5E58330E70DD2D5E4C3A5
:100BA0009582F582E49583F583E51D30E70BE4C378
:100BB000951CF51CE4951DF51D1209A730D50BE415
:100BC000C39582F582E49583F5832210980280FB19
:100BD000AA998A82C0021218DFD0028A822220F7E4
:100BE0001030F6118883A88220F507F6A883758354
:100BF0000022F280F7F022C2D5E58330E70DD2D58E
:100C0000E4C39582F582E49583F583E51D30E70D15
:100C1000B2D5E4C3951CF51CE4951DF51D120D66B7
:100C200030D50BE4C39582F582E49583F58322A841
:100C3000811818C6B2E7C6020B06AC83AB827A00F5
:100C40007900748E0218FD120EB530D502B2D1BFF4
:100C50000009BC0003020E77020E6ABC0003020EFC
:100C600054E583B4FF0BE582B4FF03020E77020E56
:100C700054E582B4FF03020E6AC395835007247FB4
:100C8000400B020E542480145003020E6AC0E0E4AC
:100C9000CCCBCAF98D1C8E1D8F1EEF54F0C4F51FEE
:100CA000758306851FF0EB84F582E9C4F9EAC4FA7E
:100CB000EBC4FBEC540FC47803D6FC18EBD6FB183E
:100CC000EAD6FA8582F0EDA4A8F0FD8582F0EEA4C4
:100CD00028FEE435F0F88582F0EFA428FFE435F033
:100CE000F8E99DF9EA9EFAEB9FFBEC98FCAD1CAE8F
:100CF0001DAF1E30E7101582E92DF9EA3EFAEB3FF1
:100D0000FBE43CFC80EDC082D58398C3E933F9EA6B
:100D100033FAEB33FBEC33FCC3E99DEA9EEB9FEC2B
:100D20009400B3E413F9D002D0E0C44AFAD003D05F
:100D3000E0C44BFBD004D0E0F5F0540FC44CFCD021
:100D400082158230F40FD3EC13FCEB13FBEA13FA99
:100D5000E913F90582E930E70A74012AFAE43BFB5A
:100D6000E43CFC020E4B7A10E4FBFCE58225E0F546
:100D700082E58333F583EB33FBEC33FCEB951CF519
:100D8000F0EC951D4006FCABF0438201DADD2279E0
:100D900001AA82E68F82B5821318E6B5F00E18E636
:100DA000B5830918E68A82B58202790022B4800FE1
:100DB000E5F0700AE5837006E58270027F00EFB609
:100DC000801518B6001018B6000B18B600060808F3
:100DD0000876002208080822121921C3749E958201
:100DE00040397900120F1030D126E9F42401F58240
:100DF000EAF43400F583EBF43400F5F0ECF434005D
:100E0000700AE582458345F0700122E430E70F2245
:100E1000EC20E71489828A838BF02230D10AE4F532
:100E200082F583F5F074802274FFF582F583F5F086
:100E3000747F22B98003EA13B34010EA2401FAE474
:100E40003BFBE43CFC50047C800582BC000EBB00F4
:100E50000BBA0008E4F5F0F583F58222A2D1E58211
:100E6000138CF092F78B838A8222E4F583F58275E6
:100E7000F080F4A2D11322E4F583F58275F0C074FA
:100E80007F227804EC7011E58224F8500AF582E4A0
:100E9000C9CACBFCD8EF22EC7820058220E713D515
:100EA000820122C3E933F9EA33FAEB33FBEC33FC7A
:100EB000D8EA158222AA82AB83A2F73392D16002CC
:100EC000D2F7F582ACF0E58124F9F8E6FD08E6FEFC
:100ED0000886F008E6A2F73392D56002D2F7F583D0
:100EE000AFF022FCABF0AA83A982749EC2D1F58236
:100EF000120E82020E33E582C583F582A2D133A29F
:100F0000D592D11392D5ECCFFCEBCEFBEACDFA22F1
:100F10006040F82582500274FFF582E824F8501EE4
:100F2000CCCBCAF9E4CC24F85014CBCAF9E4CB24D6
:100F3000F8500BCAF9E4CA24F850037900222408B7
:100F40006010F8C3EC13FCEB13FBEA13FAE913F996
:100F5000D8F122AA827464C0E0740FC0E0C00AC055
:100F60000B8A82220511E4B51102051222AA8274AD
:100F7000302AFA24C6500A74072AFA3002034302C0
:100F8000208A82020F53E582FAC4540FF582C00210
:100F9000120F6DD002740F5AF582020F6DAA0CABBE
:100FA0000DAC0EAD0FAE10751720EE2EFEED2354D6
:100FB00001FF4206EA2AFAEB33FBEC33FCED33FD8A
:100FC000C3EE95134008EEC39513FE430201D517F7
:100FD000D98A0C8B0D8C0E8D0F8E10227849E62449
:100FE000D075F00AA4FA784AE624D02AFA7848861E
:100FF00003BB2D04C3E49AFA751301C3E464808A29
:10100000F063F08095F050297517038A0374F62574
:1010100017401C0513E51714243DF8E517243DF986
:101020008704A604772E1BEBFA6004051780DE8B7D
:1010300002EA30E70D783E8603783FA603783E76D5
:101040002E0AE515600AE51504FB2513F513800546
:10105000300D020513783D8603E4BB2D0104FB70BF
:10106000062008033009020513300603021123305D
:101070000757EB600C75822DC002120F53D002800F
:101080001C30080C75822BC002120F53D002800D49
:1010900030090A758220C002120F53D002783E86B2
:1010A00004BC2E0C758230C002120F53D0021514EE
:1010B000AC141514C3E5139C40030211677582300C
:1010C000C002120F53D00280E7AC141514C3E5130D
:1010D0009C500C758220C002120F53D00280EA7817
:1010E0003D8604BC2D0C75822DC002120F53D00218
:1010F000801C30080C75822BC002120F53D0028066
:101100000D30090A758220C002120F53D002783EBA
:101110008604BC2E52758230C002120F53D00215C5
:10112000148044EB600E75822DC002120F53D00262
:101130001514802030080E75822BC002120F53D078
:10114000021514800F30090C758220C002120F5353
:10115000D0021514783E8603BB2E0C758230C00277
:10116000120F53D0021514751701C20FE517243D55
:10117000F88603BB4503021224BB2E348A03C3E462
:1011800064808BF063F08095F0500F758230C0035F
:10119000120F53D0031B8B0280E48B02D20FE51594
:1011A0007038200D0302122475822E120F538074A2
:1011B000300F278A03EB30E71FC3E464808515F006
:1011C00063F08095F0500C758230C003120F53D03D
:1011D0000315150B8B0280DD8B02300F0EC3E46408
:1011E000808515F063F08095F05021E517243DF8D7
:1011F00086038B82C002120F53D002300F0EE51708
:10120000243DF88603BB2E02800215151514C3E495
:1012100064808515F063F08095F04003200F05058C
:101220001702116CC3E464808515F063F08095F0BB
:10123000500A758230120F53151580E830060FAA38
:10124000141514EA6008758220120F5380F122E50C
:10125000157003300D0D74072515FAE514C39AF5C2
:10126000148006E51424FAF514751700783D8602FB
:10127000BA2B0F20080C783D762020090575170140
:101280000514200619AA14C3E464808AF063F08070
:1012900095F0500A758220120F53151480E7C20F83
:1012A000E517243DF88602BA00028069BA451F306E
:1012B00002027665C3E464808515F063F08095F0E2
:1012C000500A758230120F53151580E8D20FC3E50E
:1012D000179402E433FA7014EA700EC3E464808554
:1012E00015F063F08095F04003300F16E517243DAC
:1012F000F886028A82120F53E51724FD5012151545
:10130000800E7402B51709300D0675822E120F5328
:1013100005170212A0300619AA14C3E464808AF0EB
:1013200063F08095F0500A758220120F53151480D7
:10133000E72285820A85830BE4F511F512AA18AB22
:1013400019AC1A8A828B838CF012095BFD74012A16
:10135000F518E43BF5198C1AEDFA70030218D8BAA7
:10136000250280030218D0C206C207C208C209C201
:101370000AC20BC20CC20DC203C204C2057513001F
:101380007514007515FFAB18AC19AD1A8B828C83E0
:101390008DF012095BFAA3AB82AC838B188C198D8C
:1013A0001ABA25078A82120F5380928A06BE30002D
:1013B000402E8A06EE24C6402774FFB51513E514A7
:1013C00075F00AA4FEEA24D02EF51470BFD207806F
:1013D000BBE51575F00AA4FEEA24D02EF51580AC05
:1013E000BA2E0A74FFB515A4751500809F8A06BE33
:1013F0006100400E8A06EE248540075302DFD202C8
:101400008002C202BA20028075BA230302148DBA88
:101410002A03021492BA2B02805FBA2D028055BAB9
:101420004202805FBA43030214D7BA440302161281
:10143000BA450302162CBA4603021628BA4703021D
:101440001630BA4903021612BA4C02803BBA4E0358
:10145000021634BA4F03021619BA50030215ABBA7A
:1014600053030214FBBA550302161EBA58030216A0
:101470002302165ED20602138CD20802138CD20904
:1014800002138CD20B02138CD20C02138CD20D02DD
:10149000138C74FFB51520300B0BE51B14F8881B5B
:1014A000861402138CE51B24FEF8881B860608862A
:1014B00007188E1402138C300B0BE51B14F8881BD5
:1014C000861502138CE51B24FEF8881B8606088609
:1014D00007188E1502138C300B0AE51B14F8881BB5
:1014E0008602800FE51B24FEF8881B86030886040D
:1014F000188B028A82120F53021663E51B24FDF833
:10150000881B860308860408860518188B0C8C0D2A
:101510008D0E8B828C838DF0121A52AB82AC838B32
:101520001674FFB5150385161520061DC3E516951F
:10153000145016E514C39516F514AB141514EB608E
:1015400008758220120F5380F1850C82850D8385EA
:101550000EF012095BFBFA6029AB151515C3E464A4
:10156000808BF063F08095F050188A82120F53AB95
:101570000CAC0DAD0E0BBB00010C8B0C8C0D8D0E4D
:1015800080C7200603021663C3E5169514400302C4
:101590001663E514C39516F514AB141514EB70031C
:1015A000021663758220120F5380EEE51B24FDF8AE
:1015B000881B860308860408860518188B0C8C0D7A
:1015C0008D0EE50EFB30E7047A438013EB54606028
:1015D000047A50800AEB30E6047A4980027A588A0D
:1015E00082C002120F5375823A120F537582301265
:1015F0000F53758278120F53D002BA4902800BBA8A
:1016000050028006850D82120F86850C82120F868D
:101610008051D20A75130A804A75130880457513E4
:101620000A8040751310803BD2038037D204803388
:10163000D205802FE51B24FDF8881B86030886044D
:1016400008860518188B0C8C0D8D0E8B828C838D63
:10165000F0E511120BDEA3E512120BDE80058A8283
:10166000120F53200306200403300570E51B24FCF1
:10167000F8881B860308860408860508860618185D
:10168000188B0C8C0D8D0E8E0FE50CE50DE50EE51F
:101690000F8B828C838DF0EE12193374FFB5150316
:1016A000751506300527747F550FFB8B10E510EB81
:1016B0002BFB8B10E50E30E70674014510F510E5A5
:1016C0001024684006749925104002D204300406A4
:1016D00012124F02133D120FDC02133DE51370038B
:1016E00002133D7B42300B2BE51B14F8881BE6FCF4
:1016F0003395E0FDFEFF8C0C8D0D8E0E8F0F200AB2
:101700005EAC0C7D007E007F008C0C8D0D8E0E8FEC
:101710000F804C300C1FE51B24FCF8881B86040846
:1017200086050886060886071818188C0C8D0D8EFD
:101730000E8F0F802AE51B24FEF8881B860408867E
:101740000518ED3395E0FEFF8C0C8D0D8E0E8F0F7E
:10175000200A0CAC0CAD0D7E007F008E0E8F0F307A
:101760000D43E50C450D450E450F60397408B51362
:101770000C758230C003120F53D00380287410B54B
:101780001323758230C003120F53D00330020C753F
:101790008278C003120F53D003800A758258C003A9
:1017A000120F53D003300A25AC0CAD0DAE0EE50F71
:1017B000FF30E717C3E49CFCE49DFDE49EFEE49F3C
:1017C000FF8C0C8D0D8E0E8F0F8002C20A751600D5
:1017D000D20E8B00751000C000120F9DD000200E9D
:1017E0000DE510C4FCE6FD4CF61888038002A61037
:1017F0000516B20EE50C450D450E450F70D6880353
:10180000E514700375140120071A200617E5160465
:10181000FCC39514500E758220C003120F53D003E1
:10182000151480E9300A0E75822DC003120F53D0B3
:101830000315148024E516602030080E75822BC035
:1018400003120F53D0031514800F30090C7582203A
:10185000C003120F53D003151420061EAC14151428
:10186000C3E5169C50273007047C3080027C208C16
:1018700082C003120F53D00380E2C3E516951450C3
:1018800009E514C39516F51480037514008B00AB9D
:10189000161516EB6022B20E200E0A08E6C4540F8D
:1018A000FB8B1080078603740F5BF510851082C0D8
:1018B00000120F6DD00080D720060302133DAB1439
:1018C0001514EB700302133D758220120F5380EE46
:1018D0008A82120F5302133D85118285128322AA38
:1018E00082BA0A0810990280FB75990D109902803E
:1018F000FB8A9922FCABF0AA83A982749EF582C26E
:10190000D1EC30E716D2D1E9F42401F9EAF434003D
:10191000FAEBF43400FBECF43400FC120E82020EFD
:1019200033AA82AB83A2F73392D16002D2F7F58259
:10193000ACF022C0E0F84582458345F07009F5F02F
:10194000FBFCFDFE021A01E823A2F792E0F8A9824F
:10195000AA83D2F7ABF07C007E07C374979840400F
:1019600074FF2EFE740A89F0A4F985F082740A8A45
:10197000F0A4FA85F083740A8BF0A4FB740529F9AE
:10198000EA3582FAEB3583FB740035F0FCC3EC13C7
:10199000FCEB13FBEA13FAE913F908EC70EF80BAD9
:1019A000E8C3947FF88B838EF0E4FBFCFDFEFF0818
:1019B000C3E933F9EA33FAE58333F583EB3BD4FB30
:1019C000EC3CD4FCED3DD4FDEE3ED4FEEF3FD4FF25
:1019D000602D05F074052BD4FBE43CD4FCE43DD42D
:1019E000FDE43ED4FEE43FD4FF758204C3EF13FF51
:1019F000EE13FEED13FDEC13FCEB13FBD582EDD8DB
:101A0000AF783DD0E020E704762B8002762D087970
:101A100006E7C4540F4430F608B90603762E08E7EB
:101A2000540F4430F60819B902E7764508E5F0206E
:101A3000E704762B8004762DF4040875F00A8444BC
:101A400030F608E5F04430F608E4F690003D75F015
:101A50004022AA82AB83ACF07D007E008A828B8319
:101A60008CF012095BFFA3AA82AB83EF60070DBD68
:101A700000EA0E80E78D828E8322000000000000C5
:00000001FF
